:100000000C9434000C94CD090C94000A0C9451000B
:100010000C9451000C9451000C9451000C949717BF
:100020000C94CA170C9498160C9451000C94311728
:100030000C9464170C9465160C94CB160C94FE1655
:100040000C9432160C9451000C9451000C945100F5
:100050000C9451000C9451000C9451000C945100DC
:100060000C9451000C94510011241FBECFEFD8E026
:10007000DEBFCDBF11E0A0E0B1E0ECE5F4E302C0EB
:1000800005900D92A431B107D9F711E0A4E1B1E0D8
:1000900001C01D92AA32B107E1F70E94A5180C9485
:1000A0002C1A0C940000EF92FF920F931F937B0188
:1000B0008C0120E030E040E05FE40E94530388239D
:1000C0008CF0C801B70120E030E040E05FE40E941E
:1000D000CB010E94B3039B01AC0120503040404053
:1000E000504806C0C801B7010E94B3039B01AC0190
:1000F000B901CA011F910F91FF90EF900895A0E000
:10010000B0E0E5E8F0E00C94F519DC012B01FA0110
:100110009C91923008F439C1EB018881823008F457
:1001200033C1943069F4843009F02FC111969C9149
:1001300011978981981709F428C1A0E0B1E025C181
:10014000843009F421C18230A9F4923009F01DC134
:100150009A01AD0188E0EA010990AE01E901099236
:100160009E018150C1F7E201898111969C918923FA
:10017000818308C1923009F407C112962D903C90FA
:100180001397EB018A819B811496AD90BD90CD9021
:10019000DC901797EC80FD800E811F819101281B58
:1001A000390BB90137FF04C066277727621B730B31
:1001B000603271050CF061C0121613066CF5370140
:1001C0004801062E04C096948794779467940A9405
:1001D000D2F721E030E040E050E004C0220F331FAE
:1001E000441F551F6A95D2F721503040404050407F
:1001F0002E213F2140235123211531054105510571
:1002000021F021E030E040E050E079018A01E62869
:10021000F728082919293CC0232BD1F1260E371EB7
:1002200035014601062E04C096948794779467940E
:100230000A94D2F721E030E040E050E004C0220F01
:10024000331F441F551F6A95D2F72150304040405C
:1002500050402A213B214C215D21211531054105CA
:10026000510521F021E030E040E050E059016A0101
:10027000A628B728C828D9280BC0821593052CF0CA
:100280001C01AA24BB24650103C0EE24FF248701BE
:1002900011969C91D20111968C91981709F445C042
:1002A000992339F0A80197012A193B094C095D09E6
:1002B00006C0A60195012E193F09400B510B57FDB1
:1002C00008C0118233822282248335834683578378
:1002D0001DC081E081833382228288279927DC0137
:1002E000821B930BA40BB50B84839583A683B783E2
:1002F0000DC0220F331F441F551F248335834683AF
:1003000057838281938101979383828324813581EE
:1003100046815781DA01C9010197A109B1098F5FAF
:100320009F4FAF4FBF4328F30BC09183338222828C
:10033000EA0CFB1C0C1D1D1DE482F582068317834D
:1003400083E08083248135814681578157FF1AC01D
:10035000C901AA2797FDA095BA2F81709070A0704F
:10036000B0705695479537952795822B932BA42BE4
:10037000B52B84839583A683B7838281938101966D
:1003800093838283DF0101C0D201CD01CDB7DEB7F7
:10039000E2E10C94111AA0E2B0E0E1EDF1E00C947E
:1003A000011A69837A838B839C832D833E834F83D9
:1003B0005887E9E0EE2EF12CEC0EFD1ECE010196E1
:1003C000B7010E94DC048E010F5E1F4FCE0105961F
:1003D000B8010E94DC048A8991E089278A8BC701D1
:1003E000B801AE01475E5F4F0E947F000E94070484
:1003F000A096E6E00C941D1AA0E2B0E0E2E0F2E084
:100400000C94011A69837A838B839C832D833E83AA
:100410004F835887F9E0EF2EF12CEC0EFD1ECE0134
:100420000196B7010E94DC048E010F5E1F4FCE01C2
:100430000596B8010E94DC04C701B801AE01475E11
:100440005F4F0E947F000E940704A096E6E00C9494
:100450001D1AA0E2B0E0EFE2F2E00C94F519698316
:100460007A838B839C832D833E834F835887CE0171
:100470000196BE01675F7F4F0E94DC04CE010596A6
:10048000BE016F5E7F4F0E94DC049985923088F038
:1004900089898230C8F0943019F4823051F404C054
:1004A000843029F4923081F480E091E0C6C092302B
:1004B00049F420E09A858A89981321E02A87CE01A1
:1004C0000996BBC0823049F420E09A858A89981346
:1004D00021E02A8BCE014196B0C02D843E844F840A
:1004E00058886D887E888F88988CEE24FF24870139
:1004F000AA24BB24650140E050E060E070E0E0E049
:10050000F0E0C10181709070892BE9F0E60CF71CD6
:10051000081D191D9A01AB012A0D3B1D4C1D5D1DC7
:1005200080E090E0A0E0B0E0E614F70408051905CB
:1005300020F481E090E0A0E0B0E0BA01A901480F0A
:10054000591F6A1F7B1FAA0CBB1CCC1CDD1C97FE0D
:1005500008C081E090E0A0E0B0E0A82AB92ACA2A49
:10056000DB2A3196E032F10549F0660C771C881CD5
:10057000991C5694479437942794C3CFFA85EA89F7
:100580002B893C898B859C85280F391F2E5F3F4F17
:1005900017C0CA0181709070892B61F0169507957C
:1005A000F794E79480E090E0A0E0B0E8E82AF92A28
:1005B0000A2B1B2B76956795579547952F5F3F4FD5
:1005C00077FDE7CF0CC0440F551F661F771F17FD3F
:1005D0004160EE0CFF1C001F111F215030404030C5
:1005E00090E0590790E0690790E4790760F32B8F5A
:1005F0003C8FDB01CA018F779070A070B07080349F
:100600009105A105B10561F447FD0AC0E114F104AB
:100610000105110529F0405C5F4F6F4F7F4F407817
:100620001A8EFE1711F081E08A8F4D8F5E8F6F8FCB
:1006300078A383E0898FCE0149960E940704A09693
:10064000E2E10C94111AA8E1B0E0E9E2F3E00C94C5
:10065000011A69837A838B839C832D833E834F8326
:10066000588789E0E82EF12CEC0EFD1ECE01019694
:10067000B7010E94DC048E010F5E1F4FCE0105966C
:10068000B8010E94DC048985823040F0898982307B
:1006900028F0C701B8010E94540501C08FEF689689
:1006A000E6E00C941D1AA8E1B0E0E9E5F3E00C9453
:1006B000011A69837A838B839C832D833E834F83C6
:1006C000588789E0E82EF12CEC0EFD1ECE01019634
:1006D000B7010E94DC048E010F5E1F4FCE0105960C
:1006E000B8010E94DC048985823040F0898982301B
:1006F00028F0C701B8010E94540501C08FEF689629
:10070000E6E00C941D1AA8E1B0E0E9E8F3E00C94EF
:10071000011A69837A838B839C832D833E834F8365
:10072000588789E0E82EF12CEC0EFD1ECE010196D3
:10073000B7010E94DC048E010F5E1F4FCE010596AB
:10074000B8010E94DC048985823040F089898230BA
:1007500028F0C701B8010E94540501C081E06896E5
:10076000E6E00C941D1AACE0B0E0E9EBF3E00C9489
:10077000051A69837A838B839C83CE010196BE011F
:100780006B5F7F4F0E94DC048D81823061F182308B
:1007900050F1843021F48E81882351F12EC02F81B5
:1007A000388537FD20C06E812F3131051CF066235E
:1007B000F9F023C08EE190E0821B930B29853A85E6
:1007C0004B855C8504C056954795379527958A9546
:1007D000D2F76623B1F050954095309521953F4F63
:1007E0004F4F5F4F0EC020E030E040E050E009C0C6
:1007F0002FEF3FEF4FEF5FE704C020E030E040E035
:1008000050E8B901CA012C96E2E00C94211ADF925B
:10081000EF92FF920F931F93FC01E480F580068115
:100820001781D1808081823048F480E090E0A0E19F
:10083000B0E0E82AF92A0A2B1B2BA5C0843009F462
:100840009FC0823021F4EE24FF24870105C0E1140B
:10085000F1040105110519F4E0E0F0E096C06281B1
:1008600073819FEF623879070CF05BC022E83FEF9D
:10087000261B370B2A3131052CF020E030E040E018
:1008800050E02AC0B801A701022E04C076956795F2
:10089000579547950A94D2F781E090E0A0E0B0E048
:1008A00004C0880F991FAA1FBB1F2A95D2F7019772
:1008B000A109B1098E219F21A023B1230097A10591
:1008C000B10521F081E090E0A0E0B0E09A01AB0139
:1008D000282B392B4A2B5B2BDA01C9018F779070BB
:1008E000A070B07080349105A105B10539F427FFDF
:1008F00009C0205C3F4F4F4F5F4F04C0215C3F4F0A
:100900004F4F5F4FE0E0F0E02030A0E03A07A0E07A
:100910004A07A0E45A0710F0E1E0F0E079018A010B
:1009200027C06038710564F5FB01E158FF4FD8011D
:10093000C7018F779070A070B07080349105A105C9
:10094000B10539F4E7FE0DC080E490E0A0E0B0E02E
:1009500004C08FE390E0A0E0B0E0E80EF91E0A1FAB
:100960001B1F17FF05C016950795F794E79431965E
:1009700087E016950795F794E7948A95D1F705C017
:10098000EE24FF248701EFEFF0E06E2F67956627D6
:100990006795902F9F77D794DD24D7948E2F8695D7
:1009A000492F462B582F5D29B701CA011F910F917E
:1009B000FF90EF90DF900895FC01DB0140815181B1
:1009C0002281622F6F7770E0221F2227221F9381DE
:1009D000892F880F822B282F30E0991F9927991F84
:1009E00011969C93119721153105A9F541155105D3
:1009F0006105710511F482E037C082E89FEF13961C
:100A00009C938E9312979A01AB0167E0220F331FDC
:100A1000441F551F6A95D1F783E08C930DC0220FB8
:100A2000331F441F551F12968D919C911397019768
:100A300013969C938E931297203080E0380780E0C5
:100A4000480780E4580758F314962D933D934D932F
:100A50005C93179708952F3F310579F4411551059F
:100A60006105710519F484E08C93089564FF03C057
:100A700081E08C9312C01C9210C02F573040139607
:100A80003C932E93129783E08C9387E0440F551F7D
:100A9000661F771F8A95D1F7706414964D935D9306
:100AA0006D937C93179708951F93DC01FB019C9134
:100AB000923008F447C08081823008F443C09430FB
:100AC00051F411961C91843099F58181682F70E062
:100AD000611B71093FC0843021F0923031F48230C3
:100AE000B9F18181882389F12DC011961C9111974C
:100AF0008230F1F081811817D9F412962D913C9132
:100B00001397828193818217930794F028173907EE
:100B1000BCF014968D919D910D90BC91A02D2481D7
:100B2000358146815781281739074A075B0718F432
:100B3000112341F00AC082179307A407B50740F4B8
:100B4000112319F061E070E005C06FEF7FEF02C084
:100B500060E070E0CB011F910895DF93CF93CDB794
:100B6000DEB728970FB6F894DEBF0FBECDBF8A83DD
:100B70006B834C8319828B81883008F0B3C08C81E1
:100B8000882309F056C08A81282F30E038872F83C8
:100B90008F81988581309105F9F02F813885223039
:100BA000310579F18F819885009709F03FC0AAE25D
:100BB000B0E0EAE2F0E08081482F8B81282F30E01E
:100BC00081E090E0022E02C0880F991F0A94E2F79C
:100BD000809584238C9388C0A4E2B0E0E4E2F0E046
:100BE0008081482F8B81282F30E081E090E0022E19
:100BF00002C0880F991F0A94E2F7809584238C9392
:100C000073C0A7E2B0E0E7E2F0E08081482F8B817B
:100C1000282F30E081E090E0022E02C0880F991F5B
:100C20000A94E2F7809584238C935EC081E08983E7
:100C30005BC08C81813009F052C08A81282F30E05E
:100C40003E832D838D819E8181309105E9F02D8138
:100C50003E812230310561F18D819E810097E1F561
:100C6000AAE2B0E0EAE2F0E08081482F8B81282FF1
:100C700030E081E090E0022E02C0880F991F0A94B4
:100C8000E2F7842B8C9330C0A4E2B0E0E4E2F0E021
:100C90008081482F8B81282F30E081E090E0022E68
:100CA00002C0880F991F0A94E2F7842B8C931CC012
:100CB000A7E2B0E0E7E2F0E08081482F8B81282FA7
:100CC00030E081E090E0022E02C0880F991F0A9464
:100CD000E2F7842B8C9308C081E0898305C081E012
:100CE000898302C081E08983898128960FB6F894B0
:100CF000DEBF0FBECDBFCF91DF910895DF93CF93BD
:100D000000D000D00F92CDB7DEB78A836B831982F3
:100D10008A81282F30E03D832C838C819D81813016
:100D2000910571F02C813D812230310571F08C816B
:100D30009D81009779F4EAE2F0E08B8180830CC01A
:100D4000E4E2F0E08B81808307C0E7E2F0E08B8192
:100D5000808302C081E0898389810F900F900F907A
:100D60000F900F90CF91DF910895DF93CF93CDB780
:100D7000DEB728970FB6F894DEBF0FBECDBF8A83CB
:100D80006B834C8319828B81883008F0B3C08C81CF
:100D9000882309F056C08A81282F30E038872F83B6
:100DA0008F81988581309105F9F02F813885223027
:100DB000310579F18F819885009709F03FC0ABE24A
:100DC000B0E0EBE2F0E08081482F8B81282F30E00B
:100DD00081E090E0022E02C0880F991F0A94E2F78A
:100DE000809584238C9388C0A5E2B0E0E5E2F0E032
:100DF0008081482F8B81282F30E081E090E0022E07
:100E000002C0880F991F0A94E2F7809584238C937F
:100E100073C0A8E2B0E0E8E2F0E08081482F8B8167
:100E2000282F30E081E090E0022E02C0880F991F49
:100E30000A94E2F7809584238C935EC081E08983D5
:100E40005BC08C81813009F052C08A81282F30E04C
:100E50003E832D838D819E8181309105E9F02D8126
:100E60003E812230310561F18D819E810097E1F54F
:100E7000ABE2B0E0EBE2F0E08081482F8B81282FDD
:100E800030E081E090E0022E02C0880F991F0A94A2
:100E9000E2F7842B8C9330C0A5E2B0E0E5E2F0E00D
:100EA0008081482F8B81282F30E081E090E0022E56
:100EB00002C0880F991F0A94E2F7842B8C931CC000
:100EC000A8E2B0E0E8E2F0E08081482F8B81282F93
:100ED00030E081E090E0022E02C0880F991F0A9452
:100EE000E2F7842B8C9308C081E0898305C081E000
:100EF000898302C081E08983898128960FB6F8949E
:100F0000DEBF0FBECDBFCF91DF910895DF93CF93AA
:100F100000D000D00F92CDB7DEB78A836B831982E1
:100F20008A81282F30E03D832C838C819D81813004
:100F3000910571F02C813D812230310571F08C8159
:100F40009D81009779F4EBE2F0E08B8180830CC007
:100F5000E5E2F0E08B81808307C0E8E2F0E08B817E
:100F6000808302C081E0898389810F900F900F9068
:100F70000F900F90CF91DF910895DF93CF93CDB76E
:100F8000DEB727970FB6F894DEBF0FBECDBF8A83BA
:100F90006B835D834C8319828C819D81009709F45A
:100FA00058C08B81883008F054C08A81282F30E0E7
:100FB0003F832E834E815F8141305105F9F08E8150
:100FC0009F818230910571F12E813F81211531057C
:100FD00009F03CC0E9E2F0E08081282F30E08B810D
:100FE000882F90E0A90102C0559547958A95E2F7B0
:100FF000CA018170EC81FD8180832DC0E3E2F0E0C5
:101000008081282F30E08B81882F90E0A90102C0D9
:10101000559547958A95E2F7CA018170EC81FD816B
:10102000808319C0E6E2F0E08081282F30E08B81D8
:10103000882F90E0A90102C0559547958A95E2F75F
:10104000CA018170EC81FD81808305C081E08983C4
:1010500002C081E08983898127960FB6F894DEBFAC
:101060000FBECDBFCF91DF910895DF93CF93CDB762
:10107000DEB7A9E6B0E0E9E6F0E0808181608C931C
:10108000A9E6B0E0E9E6F0E0808182608C93ADE310
:10109000B0E0EDE3F0E0808181608C93CF91DF914F
:1010A0000895DF93CF93CDB7DEB7A9E6B0E0E9E6C8
:1010B000F0E0808184608C93A9E6B0E0E9E6F0E09E
:1010C000808188608C93ADE3B0E0EDE3F0E0808157
:1010D00082608C93CF91DF910895DF93CF93CDB74A
:1010E000DEB727970FB6F894DEBF0FBECDBF8A8359
:1010F0006B8319828A81813009F05FC08B81282F30
:1011000030E03F832E838E819F818230910529F1CB
:101110002E813F812330310534F48E819F818130CF
:10112000910561F047C02E813F812330310521F1C7
:101130008E819F818430910571F13CC0A9E6B0E0B9
:10114000E9E6F0E080818E7F8C93A9E6B0E0E9E6E5
:10115000F0E080818D7F8C9395C0A9E6B0E0E9E650
:10116000F0E0808181608C93A9E6B0E0E9E6F0E0F0
:1011700080818D7F8C9386C0A9E6B0E0E9E6F0E03F
:1011800080818E7F8C93A9E6B0E0E9E6F0E0808173
:1011900082608C9377C0A9E6B0E0E9E6F0E0808158
:1011A00081608C93A9E6B0E0E9E6F0E0808182609E
:1011B0008C9368C081E0898365C08A81823009F0A0
:1011C0005FC08B81282F30E03D832C838C819D81F3
:1011D0008230910529F12C813D812330310534F491
:1011E0008C819D818130910561F047C02C813D81CA
:1011F0002330310521F18C819D818430910571F17D
:101200003CC0A9E6B0E0E9E6F0E080818B7F8C93FA
:10121000A9E6B0E0E9E6F0E08081877F8C9332C0F8
:10122000A9E6B0E0E9E6F0E0808184608C93A9E66D
:10123000B0E0E9E6F0E08081877F8C9323C0A9E6E7
:10124000B0E0E9E6F0E080818B7F8C93A9E6B0E026
:10125000E9E6F0E0808188608C9314C0A9E6B0E0F4
:10126000E9E6F0E0808184608C93A9E6B0E0E9E6ED
:10127000F0E0808188608C9305C081E0898302C0A2
:1012800081E08983898127960FB6F894DEBF0FBE6F
:10129000CDBFCF91DF910895DF93CF9300D00F9210
:1012A000CDB7DEB78A836B8319828A818130C9F416
:1012B0008B81813041F4ADE3B0E0EDE3F0E080817B
:1012C00081608C932CC08B81823041F4ADE3B0E01F
:1012D000EDE3F0E080818E7F8C9321C081E08983F3
:1012E0001EC08A818230C9F48B81813041F4ADE324
:1012F000B0E0EDE3F0E0808181608C9310C08B81E1
:10130000823041F4ADE3B0E0EDE3F0E080818E7F28
:101310008C9305C081E0898302C081E08983898143
:101320000F900F900F90CF91DF910895DF93CF939F
:1013300000D000D00F92CDB7DEB79B838A836C8339
:1013400019828C81813071F48A819B81009739F0F8
:101350008A819B81909315018093140116C082E0CD
:10136000898313C08C81823071F48A819B810097BC
:1013700039F08A819B81909317018093160105C0F3
:1013800082E0898302C081E089830F900F900F90E3
:101390000F900F90CF91DF9108951F920F920FB68B
:1013A0000F9211242F933F934F935F936F937F93EB
:1013B0008F939F93AF93BF93EF93FF93DF93CF935D
:1013C000CDB7DEB78091140190911501009729F0F7
:1013D000E0911401F09115010995CF91DF91FF91F2
:1013E000EF91BF91AF919F918F917F916F915F919D
:1013F0004F913F912F910F900FBE0F901F90189516
:101400001F920F920FB60F9211242F933F934F9379
:101410005F936F937F938F939F93AF93BF93EF935C
:10142000FF93DF93CF93CDB7DEB7809116019091F4
:101430001701009729F0E0911601F0911701099525
:10144000CF91DF91FF91EF91BF91AF919F918F91DC
:101450007F916F915F914F913F912F910F900FBEB0
:101460000F901F901895DF93CF93CDB7DEB7AFE500
:10147000B0E0EFE5F0E0808180688C93CF91DF9160
:101480000895DF93CF93CDB7DEB7AFE5B0E0EFE5DA
:10149000F0E080818F778C93CF91DF910895DF9377
:1014A000CF93CDB7DEB7EAE2F0E087E48083E7E2EE
:1014B000F0E08FEF8083E4E2F0E087E08083EBE20E
:1014C000F0E08FEB8083E8E2F0E01082E5E2F0E00C
:1014D00081E08083CF91DF910895DF93CF93CDB7E3
:1014E000DEB7A4E4B0E0E4E4F0E080818E7F8C938A
:1014F000A4E4B0E0E4E4F0E080818D7F8C93A4E488
:10150000B0E0E4E4F0E08081877F8C93CF91DF91BD
:101510000895DF93CF93CDB7DEB729970FB6F89430
:10152000DEBF0FBECDBF8A836B8319828A81882379
:1015300009F0B5C08B81282F30E03987288788854E
:1015400099858330910509F44FC028853985243069
:1015500031055CF48885998581309105C9F028852D
:1015600039852230310551F197C0888599858530BC
:10157000910509F465C028853985253031050CF4BD
:1015800049C0888599858630910509F46FC084C06B
:10159000A4E4B0E0E4E4F0E080818E7F8C93A4E4E6
:1015A000B0E0E4E4F0E080818D7F8C93A4E4B0E0CF
:1015B000E4E4F0E08081877F8C930CC3A4E4B0E086
:1015C000E4E4F0E080818E7F8C93A4E4B0E0E4E476
:1015D000F0E0808182608C93A4E4B0E0E4E4F0E089
:1015E0008081877F8C93F6C2A4E4B0E0E4E4F0E06D
:1015F000808181608C93A4E4B0E0E4E4F0E0808139
:1016000082608C93A4E4B0E0E4E4F0E08081877F22
:101610008C93E0C2A4E4B0E0E4E4F0E08081816077
:101620008C93A4E4B0E0E4E4F0E0808182608C93E9
:10163000A4E4B0E0E4E4F0E0808188608C93CAC266
:10164000A4E4B0E0E4E4F0E0808181608C93A4E461
:10165000B0E0E4E4F0E080818D7F8C93A4E4B0E01E
:10166000E4E4F0E08081877F8C93B4C2A4E4B0E02E
:10167000E4E4F0E0808181608C93A4E4B0E0E4E4F1
:10168000F0E080818D7F8C93A4E4B0E0E4E4F0E0AE
:10169000808188608C939EC281E089839BC28A810D
:1016A000813009F0DCC18B81282F30E03F832E830D
:1016B0008E819F818A30910509F4C9C02E813F81B6
:1016C0002B3031052CF58E819F818630910509F4F0
:1016D000A6C12E813F81273031056CF48E819F8118
:1016E0008130910509F43FC02E813F8124303105BE
:1016F00009F404C1B1C18E819F818830910509F43C
:101700006CC02E813F81293031050CF083C048C068
:101710008E819F818E30910509F40DC12E813F810C
:101720002F3031056CF48E819F818B30910509F447
:10173000ABC02E813F812D30310509F4C2C08CC170
:101740008E819F818031910509F42FC12E813F81C7
:10175000203131050CF40CC18E819F8181319105BE
:1017600009F440C179C1A0E8B0E0E0E8F0E0808190
:101770008E7F8C93A0E8B0E0E0E8F0E080818D7F80
:101780008C93A0E8B0E0E0E8F0E08081877F8C9364
:10179000A0E8B0E0E0E8F0E080818F7E8C931AC290
:1017A000A0E8B0E0E0E8F0E080818E7F8C93A0E8D4
:1017B000B0E0E0E8F0E080818D7F8C93A0E8B0E0BD
:1017C000E0E8F0E0808188608C93A0E8B0E0E0E899
:1017D000F0E080818F7E8C93FDC1A0E8B0E0E0E86E
:1017E000F0E080818E7F8C93A0E8B0E0E0E8F0E04C
:1017F00080818D7F8C93A0E8B0E0E0E8F0E080810C
:1018000088608C93A0E8B0E0E0E8F0E0808180613F
:101810008C93E0C1A0E8B0E0E0E8F0E08081816076
:101820008C93A0E8B0E0E0E8F0E080818D7F8C93BD
:10183000A0E8B0E0E0E8F0E0808188608C93A0E868
:10184000B0E0E0E8F0E080818F7E8C93C3C1A0E837
:10185000B0E0E0E8F0E080818E7F8C93A0E8B0E01B
:10186000E0E8F0E0808182608C93A0E8B0E0E0E8FE
:10187000F0E0808188608C93A0E8B0E0E0E8F0E0E0
:1018800080818F7E8C93A6C1A0E8B0E0E0E8F0E014
:10189000808181608C93A0E8B0E0E0E8F0E0808196
:1018A00082608C93A0E8B0E0E0E8F0E0808188609E
:1018B0008C93A0E8B0E0E0E8F0E080818F7E8C932C
:1018C00089C1A0E8B0E0E0E8F0E080818E7F8C93F1
:1018D000A0E8B0E0E0E8F0E0808182608C93A0E8CE
:1018E000B0E0E0E8F0E0808188608C93A0E8B0E0B0
:1018F000E0E8F0E0808180618C936CC1A0E8B0E00A
:10190000E0E8F0E0808181608C93A0E8B0E0E0E85E
:10191000F0E0808182608C93A0E8B0E0E0E8F0E045
:10192000808188608C93A0E8B0E0E0E8F0E08081FE
:1019300080618C934FC1A0E8B0E0E0E8F0E08081E6
:1019400081608C93A0E8B0E0E0E8F0E080818D7FDA
:101950008C93A0E8B0E0E0E8F0E08081877F8C9392
:10196000A0E8B0E0E0E8F0E080818F7E8C9332C1A7
:10197000A0E8B0E0E0E8F0E080818E7F8C93A0E802
:10198000B0E0E0E8F0E0808182608C93A0E8B0E015
:10199000E0E8F0E08081877F8C93A0E8B0E0E0E8A9
:1019A000F0E080818F7E8C9315C1A0E8B0E0E0E884
:1019B000F0E0808181608C93A0E8B0E0E0E8F0E0A6
:1019C000808182608C93A0E8B0E0E0E8F0E0808164
:1019D000877F8C93A0E8B0E0E0E8F0E080818F7E24
:1019E0008C93F8C0A0E8B0E0E0E8F0E080818E7F62
:1019F0008C93A0E8B0E0E0E8F0E0808182608C9316
:101A0000A0E8B0E0E0E8F0E08081877F8C93A0E878
:101A1000B0E0E0E8F0E0808180618C93DBC0A0E87A
:101A2000B0E0E0E8F0E0808181608C93A0E8B0E075
:101A3000E0E8F0E0808182608C93A0E8B0E0E0E82C
:101A4000F0E08081877F8C93A0E8B0E0E0E8F0E0F0
:101A5000808180618C93BEC081E08983BBC08A8114
:101A6000823009F0B5C08B81282F30E03D832C8374
:101A70008C819D818330910509F44FC02C813D817B
:101A8000243031055CF48C819D8181309105C9F051
:101A90002C813D812230310551F197C08C819D818F
:101AA0008530910509F465C02C813D8125303105D3
:101AB0000CF449C08C819D818630910509F46FC07A
:101AC00084C0A0EBB0E0E0EBF0E080818E7F8C93EF
:101AD000A0EBB0E0E0EBF0E080818D7F8C93A0EB99
:101AE000B0E0E0EBF0E08081877F8C9373C0A0EBE7
:101AF000B0E0E0EBF0E080818E7F8C93A0EBB0E073
:101B0000E0EBF0E0808182608C93A0EBB0E0E0EB52
:101B1000F0E08081877F8C935DC0A0EBB0E0E0EBCC
:101B2000F0E0808181608C93A0EBB0E0E0EBF0E02E
:101B3000808182608C93A0EBB0E0E0EBF0E08081EC
:101B4000877F8C9347C0A0EBB0E0E0EBF0E08081B2
:101B500081608C93A0EBB0E0E0EBF0E080818260EC
:101B60008C93A0EBB0E0E0EBF0E0808188608C9398
:101B700031C0A0EBB0E0E0EBF0E0808181608C93BD
:101B8000A0EBB0E0E0EBF0E080818D7F8C93A0EBE8
:101B9000B0E0E0EBF0E08081877F8C931BC0A0EB8E
:101BA000B0E0E0EBF0E0808181608C93A0EBB0E0EE
:101BB000E0EBF0E080818D7F8C93A0EBB0E0E0EB78
:101BC000F0E0808188608C9305C081E0898302C049
:101BD00081E08983898129960FB6F894DEBF0FBE14
:101BE000CDBFCF91DF910895DF93CF93CDB7DEB70F
:101BF000A0E7B0E0E0E7F0E0808182608C93CF91D5
:101C0000DF910895DF93CF93CDB7DEB7A0E7B0E0C3
:101C1000E0E7F0E0808181608C93CF91DF910895BF
:101C2000DF93CF93CDB7DEB7A1EBB0E0E1EBF0E00F
:101C300080818E7F8C93A1EBB0E0E1EBF0E08081BE
:101C40008D7F8C93A1EBB0E0E1EBF0E080818B7FA6
:101C50008C93CF91DF910895DF93CF93CDB7DEB70B
:101C6000A0EBB0E0E0EBF0E080818F7E8C93A0EB06
:101C7000B0E0E0EBF0E0808180628C93CF91DF9167
:101C80000895DF93CF93CDB7DEB7A0EBB0E0E0EBE4
:101C9000F0E080818F7B8C93A0EBB0E0E0EBF0E094
:101CA00080818F778C93CF91DF910895DF93CF93CD
:101CB000CDB7DEB7A0EBB0E0E0EBF0E08081806173
:101CC0008C93A0EBB0E0E0EBF0E080818F7D8C9313
:101CD000CF91DF910895DF93CF93CDB7DEB7A0EB1F
:101CE000B0E0E0EBF0E0808180648C93A0EBB0E0AA
:101CF000E0EBF0E080818F778C93CF91DF910895B6
:101D0000DF93CF93CDB7DEB7A0EBB0E0E0EBF0E030
:101D100080818E7F8C93A0EBB0E0E0EBF0E08081DF
:101D20008D7F8C93A0EBB0E0E0EBF0E08081877FCB
:101D30008C93CF91DF910895DF93CF93CDB7DEB72A
:101D4000AFE6B0E0EFE6F0E0808182608C93CF9167
:101D5000DF910895DF93CF93CDB7DEB7AFE6B0E064
:101D6000EFE6F0E0808181608C93CF91DF91089560
:101D7000DF93CF93CDB7DEB7A1E8B0E0E1E8F0E0C4
:101D800080818E7F8C93A1E8B0E0E1E8F0E0808173
:101D90008D7F8C93A1E8B0E0E1E8F0E080818B7F5B
:101DA0008C93CF91DF910895DF93CF93CDB7DEB7BA
:101DB000A0E8B0E0E0E8F0E080818F7E8C93A0E8BE
:101DC000B0E0E0E8F0E0808180628C93CF91DF9119
:101DD0000895DF93CF93CDB7DEB7A0E8B0E0E0E899
:101DE000F0E080818F7B8C93A0E8B0E0E0E8F0E049
:101DF00080818F778C93CF91DF910895DF93CF937C
:101E0000CDB7DEB7A0E8B0E0E0E8F0E08081806127
:101E10008C93A0E8B0E0E0E8F0E080818F7D8C93C7
:101E2000CF91DF910895DF93CF93CDB7DEB7A0E8D0
:101E3000B0E0E0E8F0E0808180648C93A0E8B0E05E
:101E4000E0E8F0E080818F778C93CF91DF91089567
:101E5000DF93CF93CDB7DEB7A5E4B0E0E5E4F0E0E3
:101E600080818E7F8C93A5E4B0E0E5E4F0E0808192
:101E70008D7F8C93A5E4B0E0E5E4F0E080818B7F7A
:101E80008C93CF91DF910895DF93CF93CDB7DEB7D9
:101E9000AEE6B0E0EEE6F0E0808182608C93CF9118
:101EA000DF910895DF93CF93CDB7DEB7AEE6B0E014
:101EB000EEE6F0E0808181608C93CF91DF91089510
:101EC000DF93CF93CDB7DEB7A4E4B0E0E4E4F0E075
:101ED00080818F7E8C93A4E4B0E0E4E4F0E0808124
:101EE00080628C93CF91DF910895DF93CF93CDB72C
:101EF000DEB7A4E4B0E0E4E4F0E080818F7B8C9373
:101F0000A4E4B0E0E4E4F0E080818F778C93CF919B
:101F1000DF910895DF93CF93CDB7DEB7A4E4B0E0AF
:101F2000E4E4F0E0808180618C93A4E4B0E0E4E438
:101F3000F0E080818F7D8C93CF91DF910895DF93C6
:101F4000CF93CDB7DEB7A4E4B0E0E4E4F0E0808165
:101F500080648C93A4E4B0E0E4E4F0E080818F77C7
:101F60008C93CF91DF910895DF93CF93CDB7DEB7F8
:101F7000A0E8B0E0E0E8F0E080818E7F8C93A0E8FC
:101F8000B0E0E0E8F0E080818D7F8C93A0E8B0E0E5
:101F9000E0E8F0E08081877F8C93A0E8B0E0E0E8A3
:101FA000F0E080818F7E8C93CF91DF910895DF9355
:101FB000CF93CDB7DEB760970FB6F894DEBF0FBEF4
:101FC000CDBF8A836B834C8319828A81882309F071
:101FD000C9C08B81882309F05FC08C81282F30E035
:101FE000388B2F878F8598898230910529F12F852D
:101FF00038892330310534F48F85988981309105F3
:1020000061F047C02F8538892330310521F18F8554
:1020100098898430910571F13CC0A4E4B0E0E4E417
:10202000F0E080818F7B8C93A4E4B0E0E4E4F0E006
:1020300080818F778C9332C2A4E4B0E0E4E4F0E0D6
:10204000808180648C93A4E4B0E0E4E4F0E08081DB
:102050008F778C9323C2A4E4B0E0E4E4F0E08081C5
:102060008F7B8C93A4E4B0E0E4E4F0E080818068AE
:102070008C9314C2A4E4B0E0E4E4F0E080818064D6
:102080008C93A4E4B0E0E4E4F0E0808180688C9379
:1020900005C281E0898302C28B81813009F05FC073
:1020A0008C81282F30E03E872D878D859E8582305C
:1020B000910529F12D853E852330310534F48D8538
:1020C0009E858130910561F047C02D853E85233086
:1020D000310521F18D859E858430910571F13CC0DB
:1020E000A4E4B0E0E4E4F0E080818F7E8C93A4E48B
:1020F000B0E0E4E4F0E080818F7D8C93CFC1A4E474
:10210000B0E0E4E4F0E0808180618C93A4E4B0E08E
:10211000E4E4F0E080818F7D8C93C0C1A4E4B0E062
:10212000E4E4F0E080818F7E8C93A4E4B0E0E4E40A
:10213000F0E0808180628C93B1C1A4E4B0E0E4E47B
:10214000F0E0808180618C93A4E4B0E0E4E4F0E00E
:10215000808180628C93A2C181E089839FC181E0EC
:1021600089839CC18A81813009F0C9C08B81882311
:1021700009F05FC08C81282F30E03C872B878B854E
:102180009C858230910529F12B853C8523303105D2
:1021900034F48B859C858130910561F047C02B8597
:1021A0003C852330310521F18B859C858430910558
:1021B00071F13CC0A0E8B0E0E0E8F0E080818F7B06
:1021C0008C93A0E8B0E0E0E8F0E080818F778C931A
:1021D00065C1A0E8B0E0E0E8F0E0808180648C9325
:1021E000A0E8B0E0E0E8F0E080818F778C9356C102
:1021F000A0E8B0E0E0E8F0E080818F7B8C93A0E87D
:10220000B0E0E0E8F0E0808180688C9347C1A0E80E
:10221000B0E0E0E8F0E0808180648C93A0E8B0E07A
:10222000E0E8F0E0808180688C9338C181E08983A8
:1022300035C18B81813009F05FC08C81282F30E05F
:102240003A87298789859A858230910529F12985E0
:102250003A852330310534F489859A85813091059A
:1022600061F047C029853A852330310521F1898500
:102270009A858430910571F13CC0A0E8B0E0E0E8B7
:10228000F0E080818F7E8C93A0E8B0E0E0E8F0E0A1
:1022900080818F7D8C9302C1A0E8B0E0E0E8F0E09F
:1022A000808180618C93A0E8B0E0E0E8F0E080817C
:1022B0008F7D8C93F3C0A0E8B0E0E0E8F0E080818F
:1022C0008F7E8C93A0E8B0E0E0E8F0E0808180624F
:1022D0008C93E4C0A0E8B0E0E0E8F0E080818061A9
:1022E0008C93A0E8B0E0E0E8F0E0808180628C931D
:1022F000D5C081E08983D2C081E08983CFC08A8143
:10230000823009F0C9C08B81882309F05FC08C81BD
:10231000282F30E038872F838F8198858230910570
:1023200029F12F8138852330310534F48F81988548
:102330008130910561F047C02F8138852330310508
:1023400021F18F8198858430910571F13CC0A0EB1B
:10235000B0E0E0EBF0E080818F7E8C93A0EBB0E00A
:10236000E0EBF0E080818F7D8C9398C0A0EBB0E033
:10237000E0EBF0E0808180618C93A0EBB0E0E0EBDB
:10238000F0E080818F7D8C9389C0A0EBB0E0E0EB22
:10239000F0E080818F7E8C93A0EBB0E0E0EBF0E08A
:1023A000808180628C937AC0A0EBB0E0E0EBF0E03B
:1023B000808180618C93A0EBB0E0E0EBF0E0808165
:1023C00080628C936BC081E0898368C08B8181308F
:1023D00009F05FC08C81282F30E03E832D838D81F2
:1023E0009E818230910529F12D813E812330310576
:1023F00034F48D819E818130910561F047C02D813B
:102400003E812330310521F18D819E8184309105FB
:1024100071F13CC0A0EBB0E0E0EBF0E080818F7E9A
:102420008C93A0EBB0E0E0EBF0E080818F7D8C93AB
:1024300035C0A0EBB0E0E0EBF0E0808180618C93F0
:10244000A0EBB0E0E0EBF0E080818F7D8C9326C0C4
:10245000A0EBB0E0E0EBF0E080818F7E8C93A0EB0E
:10246000B0E0E0EBF0E0808180628C9317C0A0EBDD
:10247000B0E0E0EBF0E0808180618C93A0EBB0E015
:10248000E0EBF0E0808180628C9308C081E089837A
:1024900005C081E0898302C081E0898389816096DB
:1024A0000FB6F894DEBF0FBECDBFCF91DF91089578
:1024B000DF93CF93CDB7DEB760970FB6F894DEBF4A
:1024C0000FBECDBF8A836B834C8319828A81882398
:1024D00009F0AEC08B81882309F05FC08C81282F62
:1024E00030E0388B2F878F8598898230910529F1CC
:1024F0002F8538892330310534F48F8598898130D0
:10250000910561F047C02F8538892330310521F1CD
:102510008F8598898430910571F13CC0A4E4B0E0C6
:10252000E4E4F0E080818F7B8C93A4E4B0E0E4E409
:10253000F0E080818F778C93E1C1A4E4B0E0E4E423
:10254000F0E0808180648C93A4E4B0E0E4E4F0E007
:1025500080818F778C93D2C1A4E4B0E0E4E4F0E012
:1025600080818F7B8C93A4E4B0E0E4E4F0E0808190
:1025700080688C93C3C1A4E4B0E0E4E4F0E080811F
:1025800080648C93A4E4B0E0E4E4F0E080818068AF
:102590008C93B4C181E08983B1C18B81813009F012
:1025A00044C08C81282F30E03E872D878D859E8505
:1025B00083309105C9F02D853E852430310519F110
:1025C0008D859E858130910569F5A4E4B0E0E4E451
:1025D000F0E080818F7E8C93A4E4B0E0E4E4F0E04E
:1025E00080818F7D8C938AC1A4E4B0E0E4E4F0E0C4
:1025F00080818F7E8C93A4E4B0E0E4E4F0E08081FD
:1026000080628C937BC1A4E4B0E0E4E4F0E08081DC
:1026100080618C93A4E4B0E0E4E4F0E08081806227
:102620008C936CC181E0898369C181E0898366C133
:102630008A81813009F0AEC08B81882309F05FC0A8
:102640008C81282F30E03C872B878B859C858230BE
:10265000910529F12B853C852330310534F48B8598
:102660009C858130910561F047C02B853C852330E6
:10267000310521F18B859C858430910571F13CC039
:10268000A0E8B0E0E0E8F0E080818F7B8C93A0E8E8
:10269000B0E0E0E8F0E080818F778C932FC1A0E874
:1026A000B0E0E0E8F0E0808180648C93A0E8B0E0E6
:1026B000E0E8F0E080818F778C9320C1A0E8B0E063
:1026C000E0E8F0E080818F7B8C93A0E8B0E0E0E868
:1026D000F0E0808180688C9311C1A0E8B0E0E0E870
:1026E000F0E0808180648C93A0E8B0E0E0E8F0E066
:1026F000808180688C9302C181E08983FFC08B81D7
:10270000813009F044C08C81282F30E03A87298736
:1027100089859A8583309105C9F029853A852430C9
:10272000310519F189859A858130910569F5A0E80F
:10273000B0E0E0E8F0E080818F7E8C93A0E8B0E02C
:10274000E0E8F0E080818F7D8C93D8C0A0E8B0E015
:10275000E0E8F0E080818F7E8C93A0E8B0E0E0E8D4
:10276000F0E0808180628C93C9C0A0E8B0E0E0E82E
:10277000F0E0808180618C93A0E8B0E0E0E8F0E0D8
:10278000808180628C93BAC081E08983B7C081E088
:102790008983B4C08A81823009F0AEC08B818823DE
:1027A00009F05FC08C81282F30E038872F838F811C
:1027B00098858230910529F12F81388523303105A4
:1027C00034F48F8198858130910561F047C02F8165
:1027D00038852330310521F18F819885843091052A
:1027E00071F13CC0A0EBB0E0E0EBF0E080818F7BCA
:1027F0008C93A0EBB0E0E0EBF0E080818F778C93DE
:102800007DC0A0EBB0E0E0EBF0E0808180648C93D1
:10281000A0EBB0E0E0EBF0E080818F778C936EC0AE
:10282000A0EBB0E0E0EBF0E080818F7B8C93A0EB3D
:10283000B0E0E0EBF0E0808180688C935FC0A0EBBB
:10284000B0E0E0EBF0E0808180648C93A0EBB0E03E
:10285000E0EBF0E0808180688C9350C081E0898358
:102860004DC08B81813009F044C08C81282F30E02D
:102870003E832D838D819E8183309105C9F02D810A
:102880003E812430310519F18D819E818130910581
:1028900069F5A0EBB0E0E0EBF0E080818F7E8C93F7
:1028A000A0EBB0E0E0EBF0E080818F7D8C9326C060
:1028B000A0EBB0E0E0EBF0E080818F7E8C93A0EBAA
:1028C000B0E0E0EBF0E0808180628C9317C0A0EB79
:1028D000B0E0E0EBF0E0808180618C93A0EBB0E0B1
:1028E000E0EBF0E0808180628C9308C081E0898316
:1028F00005C081E0898302C081E089838981609677
:102900000FB6F894DEBF0FBECDBFCF91DF91089513
:10291000DF93CF9300D00F92CDB7DEB78A836B835E
:1029200019828A81882381F4A5E4B0E0E5E4F0E02F
:102930008081887F8C93A5E4B0E0E5E4F0E09081AD
:102940008B81892B8C9328C08A81813081F4A1E806
:10295000B0E0E1E8F0E08081887F8C93A1E8B0E00E
:10296000E1E8F0E090818B81892B8C9315C08A81FE
:10297000823081F4A1EBB0E0E1EBF0E08081887F70
:102980008C93A1EBB0E0E1EBF0E090818B81892B9F
:102990008C9302C081E0898389810F900F900F9002
:1029A000CF91DF910895DF93CF9300D000D0CDB7C2
:1029B000DEB78A837C836B8319828B819C8100972D
:1029C00019F481E0898320C08A81882339F48B81BE
:1029D0009C81909319018093180116C08A818130DF
:1029E00039F48B819C8190931B0180931A010CC058
:1029F0008A81823039F48B819C8190931D01809370
:102A00001C0102C081E0898389810F900F900F9093
:102A10000F90CF91DF910895DF93CF9300D000D036
:102A20000F92CDB7DEB78A837C836B834D83198287
:102A30008B819C81009719F481E0898350C08A8141
:102A40008823B9F48D81882339F48B819C819093FC
:102A50001F0180931E0143C08D81813039F48B8129
:102A60009C81909325018093240139C081E0898362
:102A700036C08A818130B9F48D81882339F48B8105
:102A80009C81909321018093200129C08D81813008
:102A900039F48B819C8190932701809326011FC07C
:102AA00081E089831CC08A818230B9F48D818823BA
:102AB00039F48B819C8190932301809322010FC074
:102AC0008D81813039F48B819C8190932901809391
:102AD000280105C081E0898302C081E08983898162
:102AE0000F900F900F900F900F90CF91DF9108955E
:102AF000DF93CF9300D00F92CDB7DEB78A836B837D
:102B000019828A81882329F4E6E4F0E08B818083AE
:102B10000AC08A81823029F4E2EBF0E08B81808365
:102B200002C081E0898389810F900F900F90CF912F
:102B3000DF910895DF93CF9300D0CDB7DEB79A83AE
:102B40008983E4E8F0E089819A81918380830F9002
:102B50000F90CF91DF910895DF93CF9300D000D0F5
:102B60000F92CDB7DEB78A837C836B8319828B810A
:102B70009C81009719F481E0898325C08A8188238C
:102B800051F4E6E4F0E08081882F90E0EB81FC8155
:102B90009183808318C08A81813049F4E4E8F0E0B1
:102BA00080819181EB81FC81918380830CC08A813B
:102BB000823049F4E2EBF0E08081882F90E0EB81F5
:102BC000FC81918380830F900F900F900F900F9056
:102BD000CF91DF910895DF93CF9300D0CDB7DEB7CB
:102BE0009A838983E4E8F0E089819A8191838083E4
:102BF0000F900F90CF91DF910895DF93CF93CDB7D2
:102C0000DEB7E4E8F0E080819181CF91DF91089513
:102C1000DF93CF93CDB7DEB7A0E8B0E0E0E8F0E017
:102C200080818F7B8C93A0E8B0E0E0E8F0E08081C9
:102C30008F778C93A1E8B0E0E1E8F0E080818E7FAF
:102C40008C93A1E8B0E0E1E8F0E0808182608C93B1
:102C5000A1E8B0E0E1E8F0E080818B7F8C93CF9138
:102C6000DF9108951F920F920FB60F9211242F93A8
:102C70003F934F935F936F937F938F939F93AF9304
:102C8000BF93EF93FF93DF93CF93CDB7DEB78091E0
:102C9000180190911901009729F0E0911801F09125
:102CA00019010995CF91DF91FF91EF91BF91AF91FC
:102CB0009F918F917F916F915F914F913F912F9154
:102CC0000F900FBE0F901F9018951F920F920FB686
:102CD0000F9211242F933F934F935F936F937F93A2
:102CE0008F939F93AF93BF93EF93FF93DF93CF9314
:102CF000CDB7DEB780911A0190911B01009729F0A2
:102D0000E0911A01F0911B010995CF91DF91FF919C
:102D1000EF91BF91AF919F918F917F916F915F9153
:102D20004F913F912F910F900FBE0F901F901895CC
:102D30001F920F920FB60F9211242F933F934F9330
:102D40005F936F937F938F939F93AF93BF93EF9313
:102D5000FF93DF93CF93CDB7DEB780911C019091A5
:102D60001D01009729F0E0911C01F0911D010995CA
:102D7000CF91DF91FF91EF91BF91AF919F918F9193
:102D80007F916F915F914F913F912F910F900FBE67
:102D90000F901F9018951F920F920FB60F9211244B
:102DA0002F933F934F935F936F937F938F939F9353
:102DB000AF93BF93EF93FF93DF93CF93CDB7DEB77E
:102DC00080911E0190911F01009729F0E0911E0152
:102DD000F0911F010995CF91DF91FF91EF91BF9184
:102DE000AF919F918F917F916F915F914F913F91A3
:102DF0002F910F900FBE0F901F9018951F920F925A
:102E00000FB60F9211242F933F934F935F936F93BD
:102E10007F938F939F93AF93BF93EF93FF93DF9332
:102E2000CF93CDB7DEB78091240190912501009713
:102E300029F0E0912401F09125010995CF91DF91CE
:102E4000FF91EF91BF91AF919F918F917F916F9182
:102E50005F914F913F912F910F900FBE0F901F9058
:102E600018951F920F920FB60F9211242F933F9334
:102E70004F935F936F937F938F939F93AF93BF9382
:102E8000EF93FF93DF93CF93CDB7DEB7809120010F
:102E900090912101009729F0E0912001F09121010A
:102EA0000995CF91DF91FF91EF91BF91AF919F91E4
:102EB0008F917F916F915F914F913F912F910F90E3
:102EC0000FBE0F901F9018951F920F920FB60F9282
:102ED00011242F933F934F935F936F937F938F931F
:102EE0009F93AF93BF93EF93FF93DF93CF93CDB7B0
:102EF000DEB78091260190912701009729F0E0919B
:102F00002601F09127010995CF91DF91FF91EF9173
:102F1000BF91AF919F918F917F916F915F914F91F1
:102F20003F912F910F900FBE0F901F9018951F92F9
:102F30000F920FB60F9211242F933F934F935F93ED
:102F40006F937F938F939F93AF93BF93EF93FF9371
:102F5000DF93CF93CDB7DEB780912201909123010B
:102F6000009729F0E0912201F09123010995CF917A
:102F7000DF91FF91EF91BF91AF919F918F917F91E1
:102F80006F915F914F913F912F910F900FBE0F90D6
:102F90001F9018951F920F920FB60F9211242F9326
:102FA0003F934F935F936F937F938F939F93AF93D1
:102FB000BF93EF93FF93DF93CF93CDB7DEB78091AD
:102FC000280190912901009729F0E0912801F091C2
:102FD00029010995CF91DF91FF91EF91BF91AF91B9
:102FE0009F918F917F916F915F914F913F912F9121
:102FF0000F900FBE0F901F901895DF93CF9300D0C6
:10300000CDB7DEB79A838983E8E8F0E089819A81B9
:10301000918380830F900F90CF91DF910895DF937C
:10302000CF93CDB7DEB729970FB6F894DEBF0FBEAA
:10303000CDBF9E838D836F838F818130D9F5ED81E4
:10304000FE8126813781ED81FE8184819581A901F0
:10305000481B590BED81FE8122813381ED81FE8178
:1030600080819181281B390BCA01B9010E94CE19B8
:10307000CB01AC01ED81FE8120853185ED81FE81A2
:1030800080819181B901681B790BCB01489F900128
:10309000499F300D589F300D1124ED81FE818481B0
:1030A0009581820F931F9C838B838B819C81998751
:1030B000888740C08F818230D9F5ED81FE812281E1
:1030C0003381ED81FE8180819181A901481B590BDB
:1030D000ED81FE8126813781ED81FE81848195819C
:1030E000281B390BCA01B9010E94CE19CB01AC01D2
:1030F000ED81FE8122853385ED81FE81848195817C
:10310000B901681B790BCB01489F9001499F300D95
:10311000589F300D1124ED81FE8180819181820FB5
:10312000931F9A83898389819A819987888702C0AE
:10313000198618868885998529960FB6F894DEBF7A
:103140000FBECDBFCF91DF910895DF93CF93CDB761
:10315000DEB7E1970FB6F894DEBF0FBECDBF0E9479
:103160004F0A0E946D0ACE0181969EA78DA7E8E0C6
:10317000F1E0F8ABEFA7FCE0F9ABEFA5F8A9008010
:103180008FA598A9019698AB8FA7EDA5FEA5008203
:103190008DA59EA501969EA78DA799A9915099AB43
:1031A000E9A9EE2351F7CE01819662E00E940F1843
:1031B0009E8F8D8F88EE93E00E94FD1780E090E057
:1031C000AAE7B4E4898F9A8FAB8FBC8F698D7A8D13
:1031D0008B8D9C8D20E030E04AEF54E40E94290260
:1031E000DC01CB018D8B9E8BAF8BB88F6D897E8977
:1031F0008F89988D20E030E040E85FE30E948303F0
:1032000088232CF481E090E09C8B8B8B3FC06D89F0
:103210007E898F89988D20E03FEF4FE757E40E9429
:10322000230318164CF5698D7A8D8B8D9C8D20E0CB
:1032300030E040E251E40E942902DC01CB01BC01F4
:10324000CD010E945300DC01CB019C8B8B8B0FC006
:1032500088EC90E09A8B898B89899A890197F1F79C
:103260009A8B898B8B899C8901979C8B8B8B8B8903
:103270009C89009769F714C06D897E898F89988D24
:103280000E945300DC01CB019C8B8B8B8B899C892A
:10329000988B8F878F8598890197F1F7988B8F8707
:1032A00088E893E10E94FD1780E090E0AAE7B4E48B
:1032B0008B879C87AD87BE876B857C858D859E853A
:1032C00020E030E04AEF54E40E942902DC01CB0107
:1032D0008F839887A987BA876F81788589859A8532
:1032E00020E030E040E85FE30E94830388232CF471
:1032F00081E090E09E838D833FC06F8178858985D2
:103300009A8520E03FEF4FE757E40E942303181609
:103310004CF56B857C858D859E8520E030E040E214
:1033200051E40E942902DC01CB01BC01CD010E94C5
:103330005300DC01CB019E838D830FC088EC90E0AD
:103340009C838B838B819C810197F1F79C838B837A
:103350008D819E8101979E838D838D819E810097B3
:1033600069F728CF6F81788589859A850E945300F7
:10337000DC01CB019E838D838D819E819A8389831D
:1033800089819A810197F1F79A83898313CFDF931B
:10339000CF93CDB7DEB7CF91DF91089597FB092E7C
:1033A00007260AD077FD04D00CD006D000201AF4EE
:1033B000709561957F4F0895F6F7909581959F4F91
:1033C0000895AA1BBB1B51E107C0AA1FBB1FA6176C
:1033D000B70710F0A61BB70B881F991F5A95A9F7BE
:1033E00080959095BC01CD0108952F923F924F9208
:1033F0005F926F927F928F929F92AF92BF92CF9285
:10340000DF92EF92FF920F931F93CF93DF93CDB78D
:10341000DEB7CA1BDB0B0FB6F894DEBF0FBECDBF05
:1034200009942A88398848885F846E847D848C84D6
:103430009B84AA84B984C884DF80EE80FD800C81DF
:103440001B81AA81B981CE0FD11D0FB6F894DEBFC2
:0C3450000FBECDBFED010895F894FFCF32
:10345C000000000000000000E80388130000B40026
:04346C000000B400A8
:00000001FF
