:100000000C9434000C9449000C9449000C94490061
:100010000C9449000C9449000C9449000C9449003C
:100020000C9449000C9449000C9449000C9449002C
:100030000C9449000C9449000C9449000C9449001C
:100040000C9449000C9449000C9449000C9449000C
:100050000C9449000C9449000C9449000C944900FC
:100060000C9449000C94490011241FBECFEFD8E036
:10007000DEBFCDBF11E0A0E0B1E0E0EFFCE102C0E7
:1000800005900D92A833B107D9F70E94A5050C94ED
:10009000760E0C940000EF92FF920F931F937B015A
:1000A0008C0120E030E040E05FE40E944B038823B5
:1000B0008CF0C801B70120E030E040E05FE40E942E
:1000C000C3010E94AB039B01AC0120503040404073
:1000D000504806C0C801B7010E94AB039B01AC01A8
:1000E000B901CA011F910F91FF90EF900895A0E010
:1000F000B0E0EDE7F0E00C943F0EDC012B01FA01DB
:100100009C91923008F439C1EB018881823008F467
:1001100033C1943069F4843009F02FC111969C9159
:1001200011978981981709F428C1A0E0B1E025C191
:10013000843009F421C18230A9F4923009F01DC144
:100140009A01AD0188E0EA010990AE01E901099246
:100150009E018150C1F7E201898111969C9189230A
:10016000818308C1923009F407C112962D903C900A
:100170001397EB018A819B811496AD90BD90CD9031
:10018000DC901797EC80FD800E811F819101281B68
:10019000390BB90137FF04C066277727621B730B41
:1001A000603271050CF061C0121613066CF5370150
:1001B0004801062E04C096948794779467940A9415
:1001C000D2F721E030E040E050E004C0220F331FBE
:1001D000441F551F6A95D2F721503040404050408F
:1001E0002E213F2140235123211531054105510581
:1001F00021F021E030E040E050E079018A01E6287A
:10020000F728082919293CC0232BD1F1260E371EC7
:1002100035014601062E04C096948794779467941E
:100220000A94D2F721E030E040E050E004C0220F11
:10023000331F441F551F6A95D2F72150304040406C
:1002400050402A213B214C215D21211531054105DA
:10025000510521F021E030E040E050E059016A0111
:10026000A628B728C828D9280BC0821593052CF0DA
:100270001C01AA24BB24650103C0EE24FF248701CE
:1002800011969C91D20111968C91981709F445C052
:10029000992339F0A80197012A193B094C095D09F6
:1002A00006C0A60195012E193F09400B510B57FDC1
:1002B00008C0118233822282248335834683578388
:1002C0001DC081E081833382228288279927DC0147
:1002D000821B930BA40BB50B84839583A683B783F2
:1002E0000DC0220F331F441F551F248335834683BF
:1002F00057838281938101979383828324813581FF
:1003000046815781DA01C9010197A109B1098F5FBF
:100310009F4FAF4FBF4328F30BC09183338222829C
:10032000EA0CFB1C0C1D1D1DE482F582068317835D
:1003300083E08083248135814681578157FF1AC02D
:10034000C901AA2797FDA095BA2F81709070A0705F
:10035000B0705695479537952795822B932BA42BF4
:10036000B52B84839583A683B7838281938101967D
:1003700093838283DF0101C0D201CD01CDB7DEB707
:10038000E2E10C945B0EA0E2B0E0E9ECF1E00C9449
:100390004B0E69837A838B839C832D833E834F83AB
:1003A0005887E9E0EE2EF12CEC0EFD1ECE010196F1
:1003B000B7010E94D4048E010F5E1F4FCE01059637
:1003C000B8010E94D4048A8991E089278A8BC701E9
:1003D000B801AE01475E5F4F0E9477000E94FF03A5
:1003E000A096E6E00C94670EA0E2B0E0EAEFF1E040
:1003F0000C944B0E69837A838B839C832D833E837D
:100400004F835887F9E0EF2EF12CEC0EFD1ECE0144
:100410000196B7010E94D4048E010F5E1F4FCE01DA
:100420000596B8010E94D404C701B801AE01475E29
:100430005F4F0E9477000E94FF03A096E6E00C94B5
:10044000670EA0E2B0E0E7E2F2E00C943F0E6983B1
:100450007A838B839C832D833E834F835887CE0181
:100460000196BE01675F7F4F0E94D404CE010596BE
:10047000BE016F5E7F4F0E94D4049985923088F050
:1004800089898230C8F0943019F4823051F404C064
:10049000843029F4923081F480E091E0C6C092303B
:1004A00049F420E09A858A89981321E02A87CE01B1
:1004B0000996BBC0823049F420E09A858A89981356
:1004C00021E02A8BCE014196B0C02D843E844F841A
:1004D00058886D887E888F88988CEE24FF24870149
:1004E000AA24BB24650140E050E060E070E0E0E059
:1004F000F0E0C10181709070892BE9F0E60CF71CE7
:10050000081D191D9A01AB012A0D3B1D4C1D5D1DD7
:1005100080E090E0A0E0B0E0E614F70408051905DB
:1005200020F481E090E0A0E0B0E0BA01A901480F1A
:10053000591F6A1F7B1FAA0CBB1CCC1CDD1C97FE1D
:1005400008C081E090E0A0E0B0E0A82AB92ACA2A59
:10055000DB2A3196E032F10549F0660C771C881CE5
:10056000991C5694479437942794C3CFFA85EA8907
:100570002B893C898B859C85280F391F2E5F3F4F27
:1005800017C0CA0181709070892B61F0169507958C
:10059000F794E79480E090E0A0E0B0E8E82AF92A38
:1005A0000A2B1B2B76956795579547952F5F3F4FE5
:1005B00077FDE7CF0CC0440F551F661F771F17FD4F
:1005C0004160EE0CFF1C001F111F215030404030D5
:1005D00090E0590790E0690790E4790760F32B8F6A
:1005E0003C8FDB01CA018F779070A070B0708034AF
:1005F0009105A105B10561F447FD0AC0E114F104BC
:100600000105110529F0405C5F4F6F4F7F4F407827
:100610001A8EFE1711F081E08A8F4D8F5E8F6F8FDB
:1006200078A383E0898FCE0149960E94FF03A096AC
:10063000E2E10C945B0EA8E1B0E0E1E2F3E00C949F
:100640004B0E69837A838B839C832D833E834F83F8
:10065000588789E0E82EF12CEC0EFD1ECE010196A4
:10066000B7010E94D4048E010F5E1F4FCE01059684
:10067000B8010E94D4048985823040F08989823093
:1006800028F0C701B8010E944C0501C08FEF6896A1
:10069000E6E00C94670EA8E1B0E0E1E5F3E00C942D
:1006A0004B0E69837A838B839C832D833E834F8398
:1006B000588789E0E82EF12CEC0EFD1ECE01019644
:1006C000B7010E94D4048E010F5E1F4FCE01059624
:1006D000B8010E94D4048985823040F08989823033
:1006E00028F0C701B8010E944C0501C08FEF689641
:1006F000E6E00C94670EA8E1B0E0E1E8F3E00C94CA
:100700004B0E69837A838B839C832D833E834F8337
:10071000588789E0E82EF12CEC0EFD1ECE010196E3
:10072000B7010E94D4048E010F5E1F4FCE010596C3
:10073000B8010E94D4048985823040F089898230D2
:1007400028F0C701B8010E944C0501C081E06896FD
:10075000E6E00C94670EACE0B0E0E1EBF3E00C9463
:100760004F0E69837A838B839C83CE010196BE01F1
:100770006B5F7F4F0E94D4048D81823061F18230A3
:1007800050F1843021F48E81882351F12EC02F81C5
:10079000388537FD20C06E812F3131051CF066236E
:1007A000F9F023C08EE190E0821B930B29853A85F6
:1007B0004B855C8504C056954795379527958A9556
:1007C000D2F76623B1F050954095309521953F4F73
:1007D0004F4F5F4F0EC020E030E040E050E009C0D6
:1007E0002FEF3FEF4FEF5FE704C020E030E040E045
:1007F00050E8B901CA012C96E2E00C946B0EDF922E
:10080000EF92FF920F931F93FC01E480F580068125
:100810001781D1808081823048F480E090E0A0E1AF
:10082000B0E0E82AF92A0A2B1B2BA5C0843009F472
:100830009FC0823021F4EE24FF24870105C0E1141B
:10084000F1040105110519F4E0E0F0E096C06281C1
:1008500073819FEF623879070CF05BC022E83FEFAD
:10086000261B370B2A3131052CF020E030E040E028
:1008700050E02AC0B801A701022E04C07695679502
:10088000579547950A94D2F781E090E0A0E0B0E058
:1008900004C0880F991FAA1FBB1F2A95D2F7019782
:1008A000A109B1098E219F21A023B1230097A105A1
:1008B000B10521F081E090E0A0E0B0E09A01AB0149
:1008C000282B392B4A2B5B2BDA01C9018F779070CB
:1008D000A070B07080349105A105B10539F427FFEF
:1008E00009C0205C3F4F4F4F5F4F04C0215C3F4F1A
:1008F0004F4F5F4FE0E0F0E02030A0E03A07A0E08B
:100900004A07A0E45A0710F0E1E0F0E079018A011B
:1009100027C06038710564F5FB01E158FF4FD8012D
:10092000C7018F779070A070B07080349105A105D9
:10093000B10539F4E7FE0DC080E490E0A0E0B0E03E
:1009400004C08FE390E0A0E0B0E0E80EF91E0A1FBB
:100950001B1F17FF05C016950795F794E79431966E
:1009600087E016950795F794E7948A95D1F705C027
:10097000EE24FF248701EFEFF0E06E2F67956627E6
:100980006795902F9F77D794DD24D7948E2F8695E7
:10099000492F462B582F5D29B701CA011F910F918E
:1009A000FF90EF90DF900895FC01DB0140815181C1
:1009B0002281622F6F7770E0221F2227221F9381EE
:1009C000892F880F822B282F30E0991F9927991F94
:1009D00011969C93119721153105A9F541155105E3
:1009E0006105710511F482E037C082E89FEF13962C
:1009F0009C938E9312979A01AB0167E0220F331FED
:100A0000441F551F6A95D1F783E08C930DC0220FC8
:100A1000331F441F551F12968D919C911397019778
:100A200013969C938E931297203080E0380780E0D5
:100A3000480780E4580758F314962D933D934D933F
:100A40005C93179708952F3F310579F441155105AF
:100A50006105710519F484E08C93089564FF03C067
:100A600081E08C9312C01C9210C02F573040139617
:100A70003C932E93129783E08C9387E0440F551F8D
:100A8000661F771F8A95D1F7706414964D935D9316
:100A90006D937C93179708951F93DC01FB019C9144
:100AA000923008F447C08081823008F443C094300B
:100AB00051F411961C91843099F58181682F70E072
:100AC000611B71093FC0843021F0923031F48230D3
:100AD000B9F18181882389F12DC011961C9111975C
:100AE0008230F1F081811817D9F412962D913C9142
:100AF0001397828193818217930794F028173907FF
:100B0000BCF014968D919D910D90BC91A02D2481E7
:100B1000358146815781281739074A075B0718F442
:100B2000112341F00AC082179307A407B50740F4C8
:100B3000112319F061E070E005C06FEF7FEF02C094
:100B400060E070E0CB011F910895DF93CF93CDB7A4
:100B5000DEB7CE56D0400FB6F894DEBF0FBECDBF85
:100B600080E06FEF0E94880C81E060E041E00E942D
:100B7000B70B81E061E041E00E94B70B81E062E0E9
:100B800041E00E94B70B0E94B70ACE01819663969E
:100B90009FAF8EAF6397E0E3F1E06596FFAFEEAFF6
:100BA0006597F8E06696FFAF66976596EEADFFAD88
:100BB0006597008065968EAD9FAD659701966596A9
:100BC0009FAF8EAF65976396EEADFFAD63970082E2
:100BD00063968EAD9FAD6397019663969FAF8EAF80
:100BE000639766969FAD6697915066969FAF66979E
:100BF0006696EFAD6697EE23C1F6CE0189966896AC
:100C00009FAF8EAF6897E8E2F1E06A96FFAFEEAF74
:100C10006A97F8E06B96FFAF6B976A96EEADFFAD03
:100C20006A9700806A968EAD9FAD6A9701966A9624
:100C30009FAF8EAF6A976896EEADFFAD6897008262
:100C400068968EAD9FAD6897019668969FAF8EAF00
:100C500068976B969FAD6B9791506B969FAF6B9714
:100C60006B96EFAD6B97EE23C1F6CE01C1966D96F4
:100C70009FAF8EAF6D97E0E2F1E06F96FFAFEEAF02
:100C80006F97F8E0A096FFAFA0976F96EEADFFAD1F
:100C90006F9700806F968EAD9FAD6F9701966F96A0
:100CA0009FAF8EAF6F976D96EEADFFAD6D970082E3
:100CB0006D968EAD9FAD6D9701966D969FAF8EAF81
:100CC0006D97A0969FADA0979150A0969FAFA097CB
:100CD000A096EFADA097EE23C1F6CE01C996A296DD
:100CE0009FAF8EAFA297E8E1F1E0A496FFAFEEAF21
:100CF000A497F8E0A596FFAFA597A496EEADFFAD3B
:100D0000A4970080A4968EAD9FADA4970196A4965B
:100D10009FAF8EAFA497A296EEADFFADA2970082D3
:100D2000A2968EAD9FADA2970196A2969FAF8EAF71
:100D3000A297A5969FADA5979150A5969FAFA59711
:100D4000A596EFADA597EE23C1F6CE018F5B9F4F21
:100D5000A7969FAF8EAFA797E0E1F1E0A996FFAF0E
:100D6000EEAFA997F8E0AA96FFAFAA97A996EEADC5
:100D7000FFADA9970080A9968EAD9FADA99701966A
:100D8000A9969FAF8EAFA997A796EEADFFADA79797
:100D90000082A7968EAD9FADA7970196A7969FAFAD
:100DA0008EAFA797AA969FADAA979150AA969FAF8C
:100DB000AA97AA96EFADAA97EE23C1F6CE01875B5C
:100DC0009F4FAC969FAF8EAFAC9788E091E0AE9608
:100DD0009FAF8EAFAE9798E0AF969FAFAF97AE96AE
:100DE000EEADFFADAE970080AE968EAD9FADAE97E7
:100DF0000196AE969FAF8EAFAE97AC96EEADFFADBF
:100E0000AC970082AC968EAD9FADAC970196AC9638
:100E10009FAF8EAFAC97AF969FADAF979150AF9607
:100E20009FAFAF97AF96EFADAF97EE23C1F618A285
:100E30001F8E1E8EA2C0CE01875B9F4F63E048A12C
:100E40002E8D0E94EE098E8D282F2F5FCE018F5B95
:100E50009F4F62E048A10E94EE098E8D282F2E5FE1
:100E6000CE01C99661E048A10E94EE098E8D282F1F
:100E70002D5FCE01C19660E048A10E94EE0988A1D5
:100E8000882319F481E088A301C018A280E090E0D3
:100E9000AAEFB4E4898F9A8FAB8FBC8F698D7A8D5E
:100EA0008B8D9C8D20E030E04AEF54E40E942102BB
:100EB000DC01CB018D8B9E8BAF8BB88F6D897E89CA
:100EC0008F89988D20E030E040E85FE30E947B034B
:100ED00088232CF481E090E09C8B8B8B3FC06D8944
:100EE0007E898F89988D20E03FEF4FE757E40E947D
:100EF0001B0318164CF5698D7A8D8B8D9C8D20E027
:100F000030E040E251E40E942102DC01CB01BC014F
:100F1000CD010E944B00DC01CB019C8B8B8B0FC061
:100F200088EC90E09A8B898B89899A890197F1F7EF
:100F30009A8B898B8B899C8901979C8B8B8B8B8956
:100F40009C89009769F714C06D897E898F89988D77
:100F50000E944B00DC01CB019C8B8B8B8B899C8985
:100F6000988B8F878F8598890197F1F7988B8F875A
:100F70000E942F0A8E8D8C5F8E8F8E8D8D3008F49F
:100F80005ACF88E08D8FA2C0CE01875B9F4F63E070
:100F900048A12D8D0E94EE098D8D282F2F5FCE0147
:100FA0008F5B9F4F62E048A10E94EE098D8D282F34
:100FB0002E5FCE01C99661E048A10E94EE098D8D99
:100FC000282F2D5FCE01C19660E048A10E94EE0956
:100FD00088A1882319F481E088A301C018A280E0C9
:100FE00090E0AAEFB4E48B879C87AD87BE876B85C2
:100FF0007C858D859E8520E030E04AEF54E40E9498
:101000002102DC01CB018F839887A987BA876F8182
:10101000788589859A8520E030E040E85FE30E948A
:101020007B0388232CF481E090E09E838D833FC076
:101030006F81788589859A8520E03FEF4FE757E4F7
:101040000E941B0318164CF56B857C858D859E854B
:1010500020E030E040E251E40E942102DC01CB01BB
:10106000BC01CD010E944B00DC01CB019E838D832E
:101070000FC088EC90E09C838B838B819C810197CF
:10108000F1F79C838B838D819E8101979E838D8355
:101090008D819E81009769F714C06F81788589855D
:1010A0009A850E944B00DC01CB019E838D838D814C
:1010B0009E819A83898389819A810197F1F79A8326
:1010C00089830E942F0A8D8D84508D8F8D8D88236A
:1010D00009F05ACFAECEDF93CF93CDB7DEB72F97BF
:1010E0000FB6F894DEBF0FBECDBF8F8781E060E002
:1010F00040E00E94BF0C81E061E040E00E94BF0C34
:1011000080E06F850E94900D81E062E041E00E94E6
:10111000BF0C80E090E0A0E0B0E48B879C87AD87B7
:10112000BE876B857C858D859E8520E030E04AEF0B
:1011300054E40E942102DC01CB018F839887A987A8
:10114000BA876F81788589859A8520E030E040E80C
:101150005FE30E947B0388232CF481E090E09E8370
:101160008D833FC06F81788589859A8520E03FEF28
:101170004FE757E40E941B0318164CF56B857C85DE
:101180008D859E8520E030E040E251E40E942102FE
:10119000DC01CB01BC01CD010E944B00DC01CB0185
:1011A0009E838D830FC088EC90E09C838B838B8122
:1011B0009C810197F1F79C838B838D819E810197A0
:1011C0009E838D838D819E81009769F714C06F8106
:1011D000788589859A850E944B00DC01CB019E832E
:1011E0008D838D819E819A83898389819A810197DC
:1011F000F1F79A83898381E062E040E00E94BF0CAE
:101200002F960FB6F894DEBF0FBECDBFCF91DF9102
:101210000895DF93CF93CDB7DEB72F970FB6F8942D
:10122000DEBF0FBECDBF8F8781E060E041E00E944E
:10123000BF0C81E061E040E00E94BF0C80E06F8560
:101240000E94900D81E062E041E00E94BF0C80E0CE
:1012500090E0A0E0B0E48B879C87AD87BE876B856C
:101260007C858D859E8520E030E04AEF54E40E9425
:101270002102DC01CB018F839887A987BA876F8110
:10128000788589859A8520E030E040E85FE30E9418
:101290007B0388232CF481E090E09E838D833FC004
:1012A0006F81788589859A8520E03FEF4FE757E485
:1012B0000E941B0318164CF56B857C858D859E85D9
:1012C00020E030E040E251E40E942102DC01CB0149
:1012D000BC01CD010E944B00DC01CB019E838D83BC
:1012E0000FC088EC90E09C838B838B819C8101975D
:1012F000F1F79C838B838D819E8101979E838D83E3
:101300008D819E81009769F714C06F8178858985EA
:101310009A850E944B00DC01CB019E838D838D81D9
:101320009E819A83898389819A810197F1F79A83B3
:10133000898381E062E040E00E94BF0C2F960FB6E7
:10134000F894DEBF0FBECDBFCF91DF910895DF933C
:10135000CF9300D00F92CDB7DEB79B838A831982DB
:101360000EC08981282F30E08A819B81FC01E20F29
:10137000F31F80810E94090989818F5F8983898198
:10138000282F30E08A819B81FC01E20FF31F8081CE
:10139000882339F70F900F900F90CF91DF91089528
:1013A000DF93CF9300D00F92CDB7DEB78A836B83E4
:1013B0008A81882319F48B81898306C08A818130D0
:1013C00019F48B81805C8983898180580E946B0825
:1013D0000F900F900F90CF91DF910895DF93CF93EF
:1013E000CDB7DEB727970FB6F894DEBF0FBECDBFDF
:1013F0009C838B836D834E832F831A8219828D8108
:10140000882F90E0880F991F880F991F880F991FC8
:101410008A838A81805C0E946B080EC08981282F94
:1014200030E08B819C81FC01E20FF31F80810E94E0
:10143000090989818F5F89838981883078F38E815A
:101440006F810E94D0098D810E94090927960FB6ED
:10145000F894DEBF0FBECDBFCF91DF910895DF932B
:10146000CF93CDB7DEB72E970FB6F894DEBF0FBE81
:10147000CDBF81E00E946B0880E090E0A0EAB1E47B
:101480008B879C87AD87BE876B857C858D859E8588
:1014900020E030E04AEF54E40E942102DC01CB015D
:1014A0008F839887A987BA876F81788589859A8580
:1014B00020E030E040E85FE30E947B0388232CF4C7
:1014C00081E090E09E838D833FC06F817885898520
:1014D0009A8520E03FEF4FE757E40E941B03181660
:1014E0004CF56B857C858D859E8520E030E040E263
:1014F00051E40E942102DC01CB01BC01CD010E941C
:101500004B00DC01CB019E838D830FC088EC90E003
:101510009C838B838B819C810197F1F79C838B83C8
:101520008D819E8101979E838D838D819E81009701
:1015300069F714C06F81788589859A850E944B0070
:10154000DC01CB019E838D838D819E819A8389836B
:1015500089819A810197F1F79A8389832E960FB634
:10156000F894DEBF0FBECDBFCF91DF910895DF931A
:10157000CF93CDB7DEB76C970FB6F894DEBF0FBE32
:10158000CDBF80E090E0A0E2B2E4898F9A8FAB8F6C
:10159000BC8F698D7A8D8B8D9C8D20E030E04AEF79
:1015A00054E40E942102DC01CB018D8B9E8BAF8B1A
:1015B000B88F6D897E898F89988D20E030E040E872
:1015C0005FE30E947B0388232CF481E090E09C8BF6
:1015D0008B8B3FC06D897E898F89988D20E03FEF8E
:1015E0004FE757E40E941B0318164CF5698D7A8D5E
:1015F0008B8D9C8D20E030E040E251E40E9421027E
:10160000DC01CB01BC01CD010E944B00DC01CB0110
:101610009C8B8B8B0FC088EC90E09A8B898B89898F
:101620009A890197F1F79A8B898B8B899C8901970D
:101630009C8B8B8B8B899C89009769F714C06D8973
:101640007E898F89988D0E944B00DC01CB019C8B99
:101650008B8B8B899C89988B8F878F859889019735
:10166000F1F7988B8F8788E30E946B088CE00E94CB
:101670006B0881E00E946B0880E090E0A0E0B0E49D
:101680008B879C87AD87BE876B857C858D859E8586
:1016900020E030E04AEF54E40E942102DC01CB015B
:1016A0008F839887A987BA876F81788589859A857E
:1016B00020E030E040E85FE30E947B0388232CF4C5
:1016C00081E090E09E838D833FC06F81788589851E
:1016D0009A8520E03FEF4FE757E40E941B0318165E
:1016E0004CF56B857C858D859E8520E030E040E261
:1016F00051E40E942102DC01CB01BC01CD010E941A
:101700004B00DC01CB019E838D830FC088EC90E001
:101710009C838B838B819C810197F1F79C838B83C6
:101720008D819E8101979E838D838D819E810097FF
:1017300069F714C06F81788589859A850E944B006E
:10174000DC01CB019E838D838D819E819A83898369
:1017500089819A810197F1F79A8389836C960FB6F4
:10176000F894DEBF0FBECDBFCF91DF910895DF9318
:10177000CF93CDB7DEB728970FB6F894DEBF0FBE74
:10178000CDBF8A836B834C8319828B81883008F0AC
:10179000B3C08C81882309F056C08A81282F30E09D
:1017A00038872F838F81988581309105F9F02F81BB
:1017B00038852230310579F18F819885009709F0BD
:1017C0003FC0AAE2B0E0EAE2F0E08081482F8B81DE
:1017D000282F30E081E090E0022E02C0880F991F90
:1017E0000A94E2F7809584238C9388C0A4E2B0E049
:1017F000E4E2F0E08081482F8B81282F30E081E007
:1018000090E0022E02C0880F991F0A94E2F780959B
:1018100084238C9373C0A7E2B0E0E7E2F0E080811C
:10182000482F8B81282F30E081E090E0022E02C00B
:10183000880F991F0A94E2F7809584238C935EC0E9
:1018400081E089835BC08C81813009F052C08A813C
:10185000282F30E03E832D838D819E81813091053C
:10186000E9F02D813E812230310561F18D819E812B
:101870000097E1F5AAE2B0E0EAE2F0E08081482FCB
:101880008B81282F30E081E090E0022E02C0880F8B
:10189000991F0A94E2F7842B8C9330C0A4E2B0E045
:1018A000E4E2F0E08081482F8B81282F30E081E056
:1018B00090E0022E02C0880F991F0A94E2F7842B51
:1018C0008C931CC0A7E2B0E0E7E2F0E08081482FF3
:1018D0008B81282F30E081E090E0022E02C0880F3B
:1018E000991F0A94E2F7842B8C9308C081E08983C6
:1018F00005C081E0898302C081E0898389812896BF
:101900000FB6F894DEBF0FBECDBFCF91DF91089523
:10191000DF93CF9300D000D00F92CDB7DEB78A838C
:101920006B8319828A81282F30E03D832C838C8140
:101930009D818130910571F02C813D8122303105EE
:1019400071F08C819D81009779F4EAE2F0E08B815F
:1019500080830CC0E4E2F0E08B81808307C0E7E283
:10196000F0E08B81808302C081E0898389810F90C0
:101970000F900F900F900F90CF91DF910895DF930C
:10198000CF93CDB7DEB728970FB6F894DEBF0FBE62
:10199000CDBF8A836B834C8319828B81883008F09A
:1019A000B3C08C81882309F056C08A81282F30E08B
:1019B00038872F838F81988581309105F9F02F81A9
:1019C00038852230310579F18F819885009709F0AB
:1019D0003FC0ABE2B0E0EBE2F0E08081482F8B81CA
:1019E000282F30E081E090E0022E02C0880F991F7E
:1019F0000A94E2F7809584238C9388C0A5E2B0E036
:101A0000E5E2F0E08081482F8B81282F30E081E0F3
:101A100090E0022E02C0880F991F0A94E2F7809589
:101A200084238C9373C0A8E2B0E0E8E2F0E0808108
:101A3000482F8B81282F30E081E090E0022E02C0F9
:101A4000880F991F0A94E2F7809584238C935EC0D7
:101A500081E089835BC08C81813009F052C08A812A
:101A6000282F30E03E832D838D819E81813091052A
:101A7000E9F02D813E812230310561F18D819E8119
:101A80000097E1F5ABE2B0E0EBE2F0E08081482FB7
:101A90008B81282F30E081E090E0022E02C0880F79
:101AA000991F0A94E2F7842B8C9330C0A5E2B0E032
:101AB000E5E2F0E08081482F8B81282F30E081E043
:101AC00090E0022E02C0880F991F0A94E2F7842B3F
:101AD0008C931CC0A8E2B0E0E8E2F0E08081482FDF
:101AE0008B81282F30E081E090E0022E02C0880F29
:101AF000991F0A94E2F7842B8C9308C081E08983B4
:101B000005C081E0898302C081E0898389812896AC
:101B10000FB6F894DEBF0FBECDBFCF91DF91089511
:101B2000DF93CF9300D000D00F92CDB7DEB78A837A
:101B30006B8319828A81282F30E03D832C838C812E
:101B40009D818130910571F02C813D8122303105DC
:101B500071F08C819D81009779F4EBE2F0E08B814C
:101B600080830CC0E5E2F0E08B81808307C0E8E26F
:101B7000F0E08B81808302C081E0898389810F90AE
:101B80000F900F900F900F90CF91DF910895DF93FA
:101B9000CF93CDB7DEB727970FB6F894DEBF0FBE51
:101BA000CDBF8A836B835D834C8319828C819D8139
:101BB000009709F458C08B81883008F054C08A819E
:101BC000282F30E03F832E834E815F8141305105C5
:101BD000F9F08E819F818230910571F12E813F81D4
:101BE0002115310509F03CC0E9E2F0E08081282FA1
:101BF00030E08B81882F90E0A90102C05595479570
:101C00008A95E2F7CA018170EC81FD8180832DC045
:101C1000E3E2F0E08081282F30E08B81882F90E094
:101C2000A90102C0559547958A95E2F7CA018170CE
:101C3000EC81FD81808319C0E6E2F0E08081282FED
:101C400030E08B81882F90E0A90102C0559547951F
:101C50008A95E2F7CA018170EC81FD81808305C01D
:101C600081E0898302C081E08983898127960FB64C
:101C7000F894DEBF0FBECDBFCF91DF9108952F92B4
:101C80003F924F925F926F927F928F929F92AF920C
:101C9000BF92CF92DF92EF92FF920F931F93CF9359
:101CA000DF93CDB7DEB7CA1BDB0B0FB6F894DEBFF0
:101CB0000FBECDBF09942A88398848885F846E8416
:101CC0007D848C849B84AA84B984C884DF80EE8060
:101CD000FD800C811B81AA81B981CE0FD11D0FB669
:101CE000F894DEBF0FBECDBFED010895F894FFCF8D
:101CF000000000000000000000001C04041F0000A1
:101D000000000E0A0A1F000000000701011F00006A
:101D10000C180008080808000E11111F1B1B1F00DB
:081D2000000A1F1F0E04000061
:00000001FF
