:100000000C9434000C9451000C9451000C94510049
:100010000C9451000C9451000C9451000C9451001C
:100020000C9451000C9451000C9451000C9451000C
:100030000C9451000C9451000C9451000C945100FC
:100040000C9451000C9451000C9451000C945100EC
:100050000C9451000C9451000C9451000C945100DC
:100060000C9451000C94510011241FBECFEFD8E026
:10007000DEBFCDBF12E0A0E0B1E0E2E1FAE102C0F4
:1000800005900D92A832B107D9F712E0A8E2B2E0CC
:1000900001C01D92A133B107E1F70E949F0C0C949F
:1000A000070D0C940000EF92FF920F931F937B01BA
:1000B0008C0120E030E040E05FE40E94530388239D
:1000C0008CF0C801B70120E030E040E05FE40E941E
:1000D000CB010E94B3039B01AC0120503040404053
:1000E000504806C0C801B7010E94B3039B01AC0190
:1000F000B901CA011F910F91FF90EF900895A0E000
:10010000B0E0E5E8F0E00C94D00CDC012B01FA0142
:100110009C91923008F439C1EB018881823008F457
:1001200033C1943069F4843009F02FC111969C9149
:1001300011978981981709F428C1A0E0B1E025C181
:10014000843009F421C18230A9F4923009F01DC134
:100150009A01AD0188E0EA010990AE01E901099236
:100160009E018150C1F7E201898111969C918923FA
:10017000818308C1923009F407C112962D903C90FA
:100180001397EB018A819B811496AD90BD90CD9021
:10019000DC901797EC80FD800E811F819101281B58
:1001A000390BB90137FF04C066277727621B730B31
:1001B000603271050CF061C0121613066CF5370140
:1001C0004801062E04C096948794779467940A9405
:1001D000D2F721E030E040E050E004C0220F331FAE
:1001E000441F551F6A95D2F721503040404050407F
:1001F0002E213F2140235123211531054105510571
:1002000021F021E030E040E050E079018A01E62869
:10021000F728082919293CC0232BD1F1260E371EB7
:1002200035014601062E04C096948794779467940E
:100230000A94D2F721E030E040E050E004C0220F01
:10024000331F441F551F6A95D2F72150304040405C
:1002500050402A213B214C215D21211531054105CA
:10026000510521F021E030E040E050E059016A0101
:10027000A628B728C828D9280BC0821593052CF0CA
:100280001C01AA24BB24650103C0EE24FF248701BE
:1002900011969C91D20111968C91981709F445C042
:1002A000992339F0A80197012A193B094C095D09E6
:1002B00006C0A60195012E193F09400B510B57FDB1
:1002C00008C0118233822282248335834683578378
:1002D0001DC081E081833382228288279927DC0137
:1002E000821B930BA40BB50B84839583A683B783E2
:1002F0000DC0220F331F441F551F248335834683AF
:1003000057838281938101979383828324813581EE
:1003100046815781DA01C9010197A109B1098F5FAF
:100320009F4FAF4FBF4328F30BC09183338222828C
:10033000EA0CFB1C0C1D1D1DE482F582068317834D
:1003400083E08083248135814681578157FF1AC01D
:10035000C901AA2797FDA095BA2F81709070A0704F
:10036000B0705695479537952795822B932BA42BE4
:10037000B52B84839583A683B7838281938101966D
:1003800093838283DF0101C0D201CD01CDB7DEB7F7
:10039000E2E10C94EC0CA0E2B0E0E1EDF1E00C94B1
:1003A000DC0C69837A838B839C832D833E834F830C
:1003B0005887E9E0EE2EF12CEC0EFD1ECE010196E1
:1003C000B7010E94A4058E010F5E1F4FCE01059656
:1003D000B8010E94A4058A8991E089278A8BC70108
:1003E000B801AE01475E5F4F0E947F000E94CF04BC
:1003F000A096E6E00C94F80CA0E2B0E0E2E0F2E0B7
:100400000C94DC0C69837A838B839C832D833E83DD
:100410004F835887F9E0EF2EF12CEC0EFD1ECE0134
:100420000196B7010E94A4058E010F5E1F4FCE01F9
:100430000596B8010E94A405C701B801AE01475E48
:100440005F4F0E947F000E94CF04A096E6E00C94CC
:10045000F80CA0E2B0E0EFE2F2E00C94D00C69837B
:100460007A838B839C832D833E834F835887CE0171
:100470000196BE01675F7F4F0E94A405CE010596DD
:10048000BE016F5E7F4F0E94A4059985923088F06F
:1004900089898230C8F0943019F4823051F404C054
:1004A000843029F4923081F480E091E0C6C092302B
:1004B00049F420E09A858A89981321E02A87CE01A1
:1004C0000996BBC0823049F420E09A858A89981346
:1004D00021E02A8BCE014196B0C02D843E844F840A
:1004E00058886D887E888F88988CEE24FF24870139
:1004F000AA24BB24650140E050E060E070E0E0E049
:10050000F0E0C10181709070892BE9F0E60CF71CD6
:10051000081D191D9A01AB012A0D3B1D4C1D5D1DC7
:1005200080E090E0A0E0B0E0E614F70408051905CB
:1005300020F481E090E0A0E0B0E0BA01A901480F0A
:10054000591F6A1F7B1FAA0CBB1CCC1CDD1C97FE0D
:1005500008C081E090E0A0E0B0E0A82AB92ACA2A49
:10056000DB2A3196E032F10549F0660C771C881CD5
:10057000991C5694479437942794C3CFFA85EA89F7
:100580002B893C898B859C85280F391F2E5F3F4F17
:1005900017C0CA0181709070892B61F0169507957C
:1005A000F794E79480E090E0A0E0B0E8E82AF92A28
:1005B0000A2B1B2B76956795579547952F5F3F4FD5
:1005C00077FDE7CF0CC0440F551F661F771F17FD3F
:1005D0004160EE0CFF1C001F111F215030404030C5
:1005E00090E0590790E0690790E4790760F32B8F5A
:1005F0003C8FDB01CA018F779070A070B07080349F
:100600009105A105B10561F447FD0AC0E114F104AB
:100610000105110529F0405C5F4F6F4F7F4F407817
:100620001A8EFE1711F081E08A8F4D8F5E8F6F8FCB
:1006300078A383E0898FCE0149960E94CF04A096CB
:10064000E2E10C94EC0CA8E1B0E0E9E2F3E00C94F8
:10065000DC0C69837A838B839C832D833E834F8359
:10066000588789E0E82EF12CEC0EFD1ECE01019694
:10067000B7010E94A4058E010F5E1F4FCE010596A3
:10068000B8010E94A4058985823040F089898230B2
:1006900028F0C701B8010E941C0601C08FEF6896C0
:1006A000E6E00C94F80CA8E1B0E0E9E5F3E00C9486
:1006B000DC0C69837A838B839C832D833E834F83F9
:1006C000588789E0E82EF12CEC0EFD1ECE01019634
:1006D000B7010E94A4058E010F5E1F4FCE01059643
:1006E000B8010E94A4058985823040F08989823052
:1006F00028F0C701B8010E941C0601C08FEF689660
:10070000E6E00C94F80CA8E1B0E0E9E8F3E00C9422
:10071000DC0C69837A838B839C832D833E834F8398
:10072000588789E0E82EF12CEC0EFD1ECE010196D3
:10073000B7010E94A4058E010F5E1F4FCE010596E2
:10074000B8010E94A4058985823040F089898230F1
:1007500028F0C701B8010E941C0601C081E068961C
:10076000E6E00C94F80CACE0B0E0E9EBF3E00C94BC
:10077000E00C69837A838B839C83CE010196BE0152
:100780006B5F7F4F0E94A4058D81823061F18230C2
:1007900050F1843021F48E81882351F12EC02F81B5
:1007A000388537FD20C06E812F3131051CF066235E
:1007B000F9F023C08EE190E0821B930B29853A85E6
:1007C0004B855C8504C056954795379527958A9546
:1007D000D2F76623B1F050954095309521953F4F63
:1007E0004F4F5F4F0EC020E030E040E050E009C0C6
:1007F0002FEF3FEF4FEF5FE704C020E030E040E035
:1008000050E8B901CA012C96E2E00C94FC0CA8E077
:10081000B0E0EDE0F4E00C94D80C7B018C016115A4
:1008200071058105910519F482E0898360C083E038
:1008300089838EE1C82ED12CDC82CB82ED82FE82B0
:100840000F831887C801B7010E948004FC0131970B
:10085000F7FF3BC0222733272E1B3F0B57016801B0
:10086000022E04C0D694C794B794A7940A94D2F7E2
:1008700040E050E060E070E081E090E0A0E0B0E0B7
:1008800004C0880F991FAA1FBB1F2A95D2F7019792
:10089000A109B1098E219F21A023B1230097A105B1
:1008A000B10521F041E050E060E070E04A295B29A9
:1008B0006C297D294D835E836F8378878EE190E07C
:1008C0008E1B9F0B9C838B8312C0309781F00E2E62
:1008D00004C0EE0CFF1C001F111F0A94D2F7ED821A
:1008E000FE820F831887CE1ADF0ADC82CB821A823F
:1008F000CE0101960E94CF042896EAE00C94F40CF5
:10090000EF92FF920F931F937B018C0180E0E8161A
:1009100080E0F80681E0080780E0180788F48FEF90
:10092000E816F1040105110531F028F088E090E0A7
:10093000A0E0B0E017C080E090E0A0E0B0E012C01E
:1009400080E0E81680E0F80680E0080781E01807FC
:1009500028F088E190E0A0E0B0E004C080E190E001
:10096000A0E0B0E020E230E040E050E0281B390B8E
:100970004A0B5B0B04C016950795F794E7948A958C
:10098000D2F7F701E85FFE4F8081281B310941094A
:100990005109C9011F910F91FF90EF900895DF92C7
:1009A000EF92FF920F931F93FC01E480F580068184
:1009B0001781D1808081823048F480E090E0A0E10E
:1009C000B0E0E82AF92A0A2B1B2BA5C0843009F4D1
:1009D0009FC0823021F4EE24FF24870105C0E1147A
:1009E000F1040105110519F4E0E0F0E096C0628120
:1009F00073819FEF623879070CF05BC022E83FEF0C
:100A0000261B370B2A3131052CF020E030E040E086
:100A100050E02AC0B801A701022E04C07695679560
:100A2000579547950A94D2F781E090E0A0E0B0E0B6
:100A300004C0880F991FAA1FBB1F2A95D2F70197E0
:100A4000A109B1098E219F21A023B1230097A105FF
:100A5000B10521F081E090E0A0E0B0E09A01AB01A7
:100A6000282B392B4A2B5B2BDA01C9018F77907029
:100A7000A070B07080349105A105B10539F427FF4D
:100A800009C0205C3F4F4F4F5F4F04C0215C3F4F78
:100A90004F4F5F4FE0E0F0E02030A0E03A07A0E0E9
:100AA0004A07A0E45A0710F0E1E0F0E079018A017A
:100AB00027C06038710564F5FB01E158FF4FD8018C
:100AC000C7018F779070A070B07080349105A10538
:100AD000B10539F4E7FE0DC080E490E0A0E0B0E09D
:100AE00004C08FE390E0A0E0B0E0E80EF91E0A1F1A
:100AF0001B1F17FF05C016950795F794E7943196CD
:100B000087E016950795F794E7948A95D1F705C085
:100B1000EE24FF248701EFEFF0E06E2F6795662744
:100B20006795902F9F77D794DD24D7948E2F869545
:100B3000492F462B582F5D29B701CA011F910F91EC
:100B4000FF90EF90DF900895FC01DB01408151811F
:100B50002281622F6F7770E0221F2227221F93814C
:100B6000892F880F822B282F30E0991F9927991FF2
:100B700011969C93119721153105A9F54115510541
:100B80006105710511F482E037C082E89FEF13968A
:100B90009C938E9312979A01AB0167E0220F331F4B
:100BA000441F551F6A95D1F783E08C930DC0220F27
:100BB000331F441F551F12968D919C9113970197D7
:100BC00013969C938E931297203080E0380780E034
:100BD000480780E4580758F314962D933D934D939E
:100BE0005C93179708952F3F310579F4411551050E
:100BF0006105710519F484E08C93089564FF03C0C6
:100C000081E08C9312C01C9210C02F573040139675
:100C10003C932E93129783E08C9387E0440F551FEB
:100C2000661F771F8A95D1F7706414964D935D9374
:100C30006D937C93179708951F93DC01FB019C91A2
:100C4000923008F447C08081823008F443C0943069
:100C500051F411961C91843099F58181682F70E0D0
:100C6000611B71093FC0843021F0923031F4823031
:100C7000B9F18181882389F12DC011961C911197BA
:100C80008230F1F081811817D9F412962D913C91A0
:100C90001397828193818217930794F0281739075D
:100CA000BCF014968D919D910D90BC91A02D248146
:100CB000358146815781281739074A075B0718F4A1
:100CC000112341F00AC082179307A407B50740F427
:100CD000112319F061E070E005C06FEF7FEF02C0F3
:100CE00060E070E0CB011F910895683008F059C0B2
:100CF000442361F5813091F0813020F0823009F099
:100D000050C018C02AB181E090E002C0880F991F3E
:100D10006A95E2F7809582238AB941C024B181E0C7
:100D200090E002C0880F991F6A95E2F780958223B0
:100D300084B935C027B181E090E002C0880F991FC7
:100D40006A95E2F78095822387B929C0413049F539
:100D5000813081F0813018F0823019F516C02AB147
:100D600081E090E002C0880F991F6A95E2F7282B76
:100D70002AB915C024B181E090E002C0880F991F04
:100D80006A95E2F7282B24B90AC027B181E090E0E8
:100D900002C0880F991F6A95E2F7282B27B980E0D7
:100DA000089581E00895813041F0813020F0823053
:100DB00039F081E008956AB901C064B980E008950E
:100DC00067B980E00895683008F059C0442361F5A0
:100DD000813091F0813020F0823009F050C018C08D
:100DE0002BB181E090E002C0880F991F6A95E2F76D
:100DF000809582238BB941C025B181E090E002C08B
:100E0000880F991F6A95E2F78095822385B935C0CE
:100E100028B181E090E002C0880F991F6A95E2F73F
:100E20008095822388B929C0413049F5813081F00D
:100E3000813018F0823019F516C02BB181E090E0B6
:100E400002C0880F991F6A95E2F7282B2BB915C0AD
:100E500025B181E090E002C0880F991F6A95E2F702
:100E6000282B25B90AC028B181E090E002C0880F84
:100E7000991F6A95E2F7282B28B980E0089581E050
:100E80000895813041F0813020F0823039F081E0E6
:100E900008956BB901C065B980E0089568B980E034
:100EA0000895FA0141155105C1F06830B0F4813060
:100EB00039F0813018F0823081F404C089B103C068
:100EC00083B101C086B190E002C0959587956A957F
:100ED000E2F78170808380E0089581E00895AF9209
:100EE000BF92CF92DF92EF92FF920F931F930E94D7
:100EF00007045B016C0120E030E04AE753E40E9404
:100F000029027B018C0120E030E040E85FE30E9491
:100F1000830388231CF461E070E024C0C801B7019A
:100F200020E03FEF4FE757E40E9423031816B4F484
:100F3000C601B50120E030E040E251E40E94290200
:100F40000E94530089E190E005C0FC013197F1F760
:100F50006150704061157105C1F707C0C801B70144
:100F60000E945300CB010197F1F71F910F91FF9061
:100F7000EF90DF90CF90BF90AF90089581E58CBD4A
:100F800008958EBD0DB407FEFDCF8EB50895813056
:100F900021F480E066E041E003C080E066E040E0EC
:100FA0000E94E3060895882319F467E040E003C037
:100FB00080E067E041E00E94E3060895FF920F930E
:100FC0001F93CF93DF93182FEB01042FF22E80E0B5
:100FD0000E94D30710621EBD0DB407FEFDCF8EB573
:100FE00008C018811EBD0DB407FEFDCF21968EB539
:100FF00001500023B1F710932A02FF2019F481E079
:101000000E94D307DF91CF911F910F91FF90089518
:10101000DF93CF930F92CDB7DEB7982F8150BE01EB
:101020006F5F7F4F8D3710F4998302C081E0898311
:1010300085E041E020E00E94DE070F90CF91DF9134
:1010400008951F93182F8350833028F41250109363
:101050002D021E5F03C083E080932D0283E06DE2CA
:1010600072E041E020E00E94DE0710932E021F9103
:10107000089521E030E002C0220F331F8A95E2F785
:10108000215020932C0282E06CE272E041E020E0EB
:101090000E94DE070895EF92FF920F931F93DF9354
:1010A000CF930F92CDB7DEB78983062F11E17E0172
:1010B0000894E11CF11C08C0812FB70141E020E039
:1010C0000E94DE071F5F01500023B1F789818093E2
:1010D0002F020F90CF91DF911F910F91FF90EF9012
:1010E00008951F93CF93DF93C8E0D2E01AE0812FD9
:1010F000BE0140912E0220E00E94DE071F5F259670
:101100001031A9F7DF91CF911F91089595E0899F44
:10111000B00111246D5F7D4F80E140912E0220E0EF
:101120000E94DE070895282F873050F481E090E078
:1011300002C0880F991F2A95E2F7815080932C02F4
:1011400081E06CE272E041E020E00E94DE07089559
:1011500020E003C08A5F90402F5F8B3F910510F025
:101160002F30C0F320932C0290912C029295907F07
:10117000862F81508F3008F4962B90932C0284E0B8
:101180006CE272E041E020E00E94DE070895FF92E9
:101190000F931F93CF93DF93182FEB01042FF22EA1
:1011A00080E00E94D3071EBD0DB407FEFDCF8EB5B3
:1011B0008FEF80932A029FEF07C09EBD0DB407FEFC
:1011C000FDCF8EB5899301500023B9F7FF2019F4A4
:1011D00081E00E94D307DF91CF911F910F91FF9083
:1011E00008951F93182F80E06BE272E041E020E049
:1011F0000E94C708123091F0133028F41123E9F04F
:101200001130D9F405C0133049F01430B1F40EC0D8
:1012100080E00E94C70780912B0206C081E00E94F7
:10122000C70780912B028C7F82600DC081E00E94F5
:10123000C70780912B02836006C080E00E94C70729
:1012400080912B028D7F80932C0262E070E080E021
:1012500090E00E946F0780E06CE272E041E020E0E5
:101260000E94DE07109326021F9108950F931F938B
:10127000182F062F80E06BE272E041E020E00E9430
:10128000C708112321F080912B02886003C0809150
:101290002C02877F80932C0280912C02023011F463
:1012A000846001C08B7F80932C0280E06CE272E04E
:1012B00041E020E00E94DE071F910F910895FF9208
:1012C0000F931F93182F062FF42E80E06BE272E02D
:1012D00041E020E00E94C708112321F080912B02F9
:1012E000806403C080912C028F7B80932C028091BC
:1012F0002C02002311F0806201C08F7D80932C02AC
:1013000080912C02FF2011F0806101C08F7E8093BC
:101310002C0280E06CE272E041E020E00E94DE07F7
:101320001F910F91FF9008951F93182F86E06BE295
:1013300072E041E020E00E94C70880912B02897F83
:1013400080932B02163071F0173018F4112331F00E
:1013500009C01C3029F0123129F405C0866003C091
:10136000826001C0846080932C0286E06CE272E0AF
:1013700041E020E00E94DE071F910895CF93DF93A4
:10138000EC0186E06BE272E041E020E00E94C708D9
:1013900080912B02877D80932B0293E0C83ED90772
:1013A00059F097E0C03DD90721F0CA3FD10521F49B
:1013B00002C0886001C0806280932C0286E06CE2EB
:1013C00072E041E020E00E94DE07DF91CF910895B6
:1013D0000F931F93182F062F862F0E9493088DE1DD
:1013E0006BE272E041E020E00E94C70880912B028E
:1013F000113009F5846080932C028DE16CE272E07B
:1014000041E020E00E94DE07073050F481E090E0E8
:1014100002C0880F991F0A95E2F7815080932C0231
:101420008CE16CE272E041E020E00E94DE0781E0A6
:10143000809328020CC08B7F80932C028DE16CE29C
:1014400072E041E020E00E94DE07109228021F9126
:101450000F91089587E06BE272E041E020E00E9486
:10146000C70880912B0285FF09C087E06BE272E01C
:1014700041E020E00E94DE0781E0089584FD02C083
:1014800080E0089587E06BE272E041E020E00E9496
:10149000DE078FEF0895813059F48DE16BE272E041
:1014A00041E020E00E94C70880912B0281600AC0C1
:1014B0008DE16BE272E041E020E00E94C70880917C
:1014C0002B028E7F80932C028DE16CE272E041E072
:1014D00020E00E94DE070895882389F0813019F505
:1014E000809126028330F9F480E00E94D30781EED8
:1014F00080932A028EBD0DB407FEFDCF0EC08091F1
:101500002602843081F480E00E94D30782EE80932B
:101510002A028EBD0DB407FEFDCF8EB581E00E947C
:10152000D30781E0089580E00895FF920F931F9301
:1015300081E08093290280E00E94C70788E08093C1
:101540002C020CE212E080E0B80141E020E00E94B1
:10155000DE078FE380932C0281E0B80141E020E0B8
:101560000E94DE0710922C0282E0B80141E020E0E8
:101570000E94DE0783E080932C02B80141E020E066
:101580000E94DE0782E080932C0285E0B80141E0F2
:1015900020E00E94DE078EE0F82EF0922C0286E01A
:1015A000B80141E020E00E94DE07F0922C0287E0C3
:1015B000B80141E020E00E94DE0783E00E94F108CC
:1015C00081E00E946C0A84E00E94F10880E00E94A1
:1015D0006C0A87E06BE272E041E020E00E94C708FD
:1015E00080912B02806780932C0287E0B80141E054
:1015F00020E00E94DE0781E061E041E00E945F0997
:1016000081E061E00E94360985E00E94210888EEB1
:1016100093E00E94BE0980E00E94940980E20E944B
:10162000080881E00E9439080E94710881E00E9448
:10163000860881E061E00E944B0884EF91E062E05F
:101640000E94A80881E00E94930880E061E00E9467
:10165000E80981E00E944B0A1F910F91FF900895C5
:101660001F93CF93DF93EC01162F809126028430D5
:1016700011F080E04DC087E06BE272E041E020E0D5
:101680000E94C70880912B0286FD02C082E040C004
:1016900080912802882311F410912F0280E00E948B
:1016A000D30781E68EBD0DB407FEFDCF8EB581E672
:1016B0009FEF08C09EBD0DB407FEFDCF8EB5899388
:1016C00011508FEF1123B1F780932A0281E00E941D
:1016D000D30787E16BE272E041E020E00E94C70897
:1016E00080912B0280FF13C087E06BE272E041E043
:1016F00020E00E94C70880912B02806480932C0216
:1017000087E06CE272E041E020E00E94DE0781E0C9
:10171000DF91CF911F9108951F93CF93DF93EC0139
:10172000162F80E00E94D30780912702813011F4A8
:1017300080EB01C080EA80932A0280912A028EBD4C
:101740000DB407FEFDCF9EB508C088818EBD0DB4D7
:1017500007FEFDCF9EB5219611501123B1F780935E
:101760002A0281E00E94D307DF91CF911F91089553
:101770000F931F93CF93DF93EC01062F142F87E075
:101780006BE272E041E020E00E94C70880912B02EA
:1017900085FD12C080912602833071F410932702D8
:1017A00080912802813011F400912F02CE01602F28
:1017B0000E948C0B81E001C080E0DF91CF911F91EE
:1017C0000F91089580E066E041E00E94750680E098
:1017D00067E041E00E94750680E067E041E00E941A
:1017E000E30681E00E94C70708950F931F93082F17
:1017F000162F81E58CBD0E94E20B66E970E080E067
:1018000090E00E946F07113021F080912902882317
:1018100011F40E94950A013079F0013018F002307D
:1018200049F51CC080E00E94F10881E060E040E0E2
:101830000E945F0983E01BC080E00E94F10880E005
:1018400061E041E00E945F0984E00E94F10864E6E3
:1018500070E080E090E00E946F0714C080E00E947A
:10186000F10881E061E041E00E945F0981E00E94AF
:10187000F10808C080E00E94F10881E061E041E0E9
:101880000E945F091F910F9108958EED8AB98FEF25
:1018900087B98BE284B988EA8BB918B884E085B936
:1018A00008958CB580618CBD8CB581608CBD8CB584
:1018B0008D7F8CBD8DB58E7F8DBD8CB580648CBDCC
:1018C00008958CB58F7E8CBD8CB580648CBD0895D9
:1018D000FB016115710511F482E008958EBD0DB410
:1018E00007FEFDCF8EB5808380E00895A1ECB0E0C7
:1018F0008C918B7F8C9386E08093C200E0ECF0E0CB
:1019000080818D7F808387E690E09093C5008093EF
:10191000C4008C9180618C938C9188608C93089525
:10192000982F8091C00085FFFCCF9093C60008954A
:101930008091C00087FFFCCF8091C6000895EF9290
:10194000FF920F931F93DF93CF930F92CDB7DEB724
:101950000E94450C0E94760C80E061E00E94F50B2D
:1019600083E0898389E1E82EF12C8E010F5F1F4F00
:101970000E94980C89830E94900C88E893E1F701FB
:101980003197F1F70197D9F7C80161E041E00E9472
:10199000B80B8823C9F30E942A0A8823E1F3E8CF11
:1019A0002F923F924F925F926F927F928F929F926F
:1019B000AF92BF92CF92DF92EF92FF920F931F935D
:1019C000CF93DF93CDB7DEB7CA1BDB0B0FB6F8940E
:1019D000DEBF0FBECDBF09942A88398848885F844E
:1019E0006E847D848C849B84AA84B984C884DF80BF
:1019F000EE80FD800C811B81AA81B981CE0FD11DA3
:101A00000FB6F894DEBF0FBECDBFED010895F89478
:021A1000FFCF06
:101A120000000000000000000001020203030303B3
:101A2200040404040404040405050505050505056C
:101A3200050505050505050506060606060606064C
:101A42000606060606060606060606060606060634
:101A5200060606060606060607070707070707071C
:101A62000707070707070707070707070707070704
:101A720007070707070707070707070707070707F4
:101A820007070707070707070707070707070707E4
:101A920007070707070707070808080808080808CC
:101AA20008080808080808080808080808080808B4
:101AB20008080808080808080808080808080808A4
:101AC2000808080808080808080808080808080894
:101AD2000808080808080808080808080808080884
:101AE2000808080808080808080808080808080874
:101AF2000808080808080808080808080808080864
:101B02000808080808080808080808080808080853
:101B1200080808080808080820C3C2C1A020C3C2D8
:101B2200C1A120C3C2C1A220C3C2C1A320C3C2C1DA
:081B3200A420C3C2C1A50501F6
:00000001FF
