:100000000C9434000C94D9010C9402020C9451000D
:100010000C9451000C9451000C9451000C94DA058E
:100020000C9403060C940D050C9451000C94880557
:100030000C94B1050C94E4040C9436050C945F0503
:100040000C94BB040C9451000C9451000C9451007E
:100050000C9451000C9451000C9451000C945100DC
:100060000C9451000C94510011241FBECFEFD8E026
:10007000DEBFCDBF11E0A0E0B1E0E8E9FDE002C0E5
:1000800005900D92AC30B107D9F711E0ACE0B1E0CA
:1000900001C01D92A232B107E1F70E946C060C94D8
:1000A000CA060C940000683008F059C0442361F57A
:1000B000813091F0813020F0823009F050C018C0BA
:1000C0002AB181E090E002C0880F991F6A95E2F79B
:1000D000809582238AB941C024B181E090E002C0BA
:1000E000880F991F6A95E2F78095822384B935C0FD
:1000F00027B181E090E002C0880F991F6A95E2F76E
:100100008095822387B929C0413049F5813081F03B
:10011000813018F0823019F516C02AB181E090E0E4
:1001200002C0880F991F6A95E2F7282B2AB915C0DB
:1001300024B181E090E002C0880F991F6A95E2F730
:10014000282B24B90AC027B181E090E002C0880FB3
:10015000991F6A95E2F7282B27B980E0089581E07E
:100160000895813041F0813020F0823039F081E013
:1001700008956AB901C064B980E0089567B980E064
:100180000895683008F059C0442361F5813091F03A
:10019000813020F0823009F050C018C02BB181E0CE
:1001A00090E002C0880F991F6A95E2F7809582233C
:1001B0008BB941C025B181E090E002C0880F991F42
:1001C0006A95E2F78095822385B935C028B181E030
:1001D00090E002C0880F991F6A95E2F7809582230C
:1001E00088B929C0413049F5813081F0813018F05B
:1001F000823019F516C02BB181E090E002C0880F63
:10020000991F6A95E2F7282B2BB915C025B181E01B
:1002100090E002C0880F991F6A95E2F7282B25B954
:100220000AC028B181E090E002C0880F991F6A954A
:10023000E2F7282B28B980E0089581E00895813005
:1002400041F0813020F0823039F081E008956BB9BF
:1002500001C065B980E0089568B980E00895FA01A9
:1002600041155105C1F06830B0F4813039F081306A
:1002700018F0823081F404C089B103C083B101C099
:1002800086B190E002C0959587956A95E2F78170F6
:10029000808380E0089581E00895E9E6F0E08081C0
:1002A00081608083808182608083E89A0895E9E696
:1002B000F0E0808184608083808188608083E99A17
:1002C0000895813041F5623081F0633020F461306F
:1002D00009F04CC006C0633089F0643009F046C0B4
:1002E00011C0809169008E7F03C080916900816098
:1002F00080936900809169008D7F34C0809169008E
:100300008E7F03C080916900816080936900809135
:100310006900826027C0823049F5623071F0633035
:1003200018F4613019F505C0633081F06430F1F4E0
:1003300011C0809169008B7F03C080916900846047
:100340008093690080916900877F0CC0809169006B
:100350008B7F03C0809169008460809369008091E5
:10036000690088608093690080E0089581E00895C5
:10037000813011F0823049F4613011F4E89A03C001
:10038000623019F4E89880E0089581E008956130C2
:1003900039F4009769F090930D0180930C01089552
:1003A000623031F4009721F090930F0180930E0199
:1003B00008951F920F920FB60F9211242F933F931F
:1003C0004F935F936F937F938F939F93AF93BF935D
:1003D000EF93FF93E0910C01F0910D01309709F03C
:1003E0000995FF91EF91BF91AF919F918F917F916F
:1003F0006F915F914F913F912F910F900FBE0F9092
:100400001F9018951F920F920FB60F9211242F93E1
:100410003F934F935F936F937F938F939F93AF938C
:10042000BF93EF93FF93E0910E01F0910F0130978E
:1004300009F00995FF91EF91BF91AF919F918F9135
:100440007F916F915F914F913F912F910F900FBED0
:100450000F901F9018958FB780688FBF08958FB742
:100460008F778FBF089587E48AB98FEF87B987E0C8
:1004700084B98FEB8BB918B881E085B9089584B53C
:100480008E7F84BD84B58D7F84BD84B5877F84BD18
:100490000895882309F046C0662301F5423079F0BB
:1004A000433020F4413009F0C6C006C0433069F043
:1004B000443009F0C0C00CC084B58F7B02C084B545
:1004C000806484BD84B58F7722C084B58F7B02C0E1
:1004D00084B5806484BD84B5806819C0613009F03A
:1004E000AAC0423079F0433020F4413009F0A3C073
:1004F00006C0433071F0443009F09DC00DC084B592
:100500008F7E02C084B5806184BD84B58F7D84BD3B
:1005100090C084B58F7E02C084B5806184BD84B5EF
:100520008062F5CF813009F057C0662341F5423033
:1005300081F0433020F4413009F07DC006C04330E3
:1005400089F0443009F077C011C0809180008F7B22
:1005500003C080918000806480938000809180003F
:100560008F7726C0809180008F7B03C080918000B0
:1005700080648093800080918000806819C0613021
:1005800009F059C04230B9F0433020F4413009F04D
:1005900052C006C0433099F0443009F04CC013C03B
:1005A000809180008F7E80938000809180008F7D7D
:1005B000809380003EC0809180008061F4CF809164
:1005C00080008F7E03C080918000806180938000D6
:1005D000809180008062ECCF823069F5662311F053
:1005E000613049F5423071F0433018F4413019F56B
:1005F00005C0433081F04430F1F411C08091B00067
:100600008F7E03C08091B00080618093B0008091A4
:10061000B0008F7D0CC08091B0008F7E03C08091B0
:10062000B00080618093B0008091B00080628093C0
:10063000B00080E0089581E008958823E1F5662305
:1006400001F5423079F0433020F4413009F0CFC059
:1006500006C0433069F0443009F0C9C00CC084B50D
:100660008F7B02C084B5806484BD84B58F771EC043
:1006700084B58F7B02C084B5806484BD84B58068F6
:1006800015C0613009F0B3C0433059F0443081F0F7
:10069000413009F0ACC084B58F7E84BD84B58F7DB8
:1006A00005C084B58F7E84BD84B5806284BD9DC045
:1006B00084B58061F8CF813009F04CC0662341F5E4
:1006C000423081F0433020F4413009F090C006C040
:1006D000433089F0443009F08AC011C08091800015
:1006E0008F7B03C080918000806480938000809124
:1006F00080008F771FC0809180008F7B03C0809126
:10070000800080648093800080918000806812C0A7
:10071000613009F06CC0433081F0443091F04130D9
:1007200009F065C0809180008F7E80938000809169
:1007300080008F7D8093800058C0809180008F7EE4
:1007400003C0809180008061809380008091800050
:100750008062F0CF823009F04AC0662339F542301A
:1007600079F0433020F4413009F041C005C04330F6
:1007700081F04430E1F511C08091B0008F7B03C05F
:100780008091B00080648093B0008091B0008F773A
:100790002AC08091B0008F7B03C08091B00080643C
:1007A0008093B0008091B00080681DC06130F9F482
:1007B000433069F0443079F04130C9F48091B000A1
:1007C0008F7E8093B0008091B0008F7D0CC08091AF
:1007D000B0008F7E03C08091B00080618093B00034
:1007E0008091B00080628093B00080E0089581E045
:1007F0000895882339F485B5887F85BD85B5862B16
:1008000085BD0CC0813061F480918100887F809328
:10081000810080918100862B8093810080E0089583
:10082000823011F081E008958091B100887F80933B
:10083000B1008091B100862B8093B10080E00895D3
:1008400061157105B1F0882329F47093210160933B
:1008500020010895813029F470931F0160931E01D7
:1008600006C0823031F470931D0160931C0180E05A
:10087000089581E008956115710589F1882371F467
:10088000442329F470931B0160931A0108954130A9
:1008900031F570931901609318011FC0813071F414
:1008A000442329F4709317016093160116C0413058
:1008B000B1F470931501609314010FC0823079F484
:1008C000442329F4709313016093120106C0413050
:1008D00031F4709311016093100180E0089581E07C
:1008E0000895882311F466BD0895823011F081E0E7
:1008F00008956093B20080E00895909385008093FE
:1009000084000895FB0161157105A9F0882321F485
:1009100086B5808311820895813039F480918400F6
:1009200090918500918380830895823021F4809195
:10093000B200808311820895909385008093840093
:1009400008952091840030918500C9010895E0E860
:10095000F0E080818F7B808380818F778083E1E8E6
:10096000F0E080818E7F80838081826080838081BF
:100970008B7F808308951F920F920FB60F921124E0
:100980002F933F934F935F936F937F938F939F9397
:10099000AF93BF93EF93FF93E0912001F09121017A
:1009A000309709F00995FF91EF91BF91AF919F9119
:1009B0008F917F916F915F914F913F912F910F9008
:1009C0000FBE0F901F9018951F920F920FB60F92A7
:1009D00011242F933F934F935F936F937F938F9344
:1009E0009F93AF93BF93EF93FF93E0911E01F0911C
:1009F0001F01309709F00995FF91EF91BF91AF91D9
:100A00009F918F917F916F915F914F913F912F9126
:100A10000F900FBE0F901F9018951F920F920FB658
:100A20000F9211242F933F934F935F936F937F9374
:100A30008F939F93AF93BF93EF93FF93E0911C012C
:100A4000F0911D01309709F00995FF91EF91BF9149
:100A5000AF919F918F917F916F915F914F913F9156
:100A60002F910F900FBE0F901F9018951F920F920D
:100A70000FB60F9211242F933F934F935F936F9371
:100A80007F938F939F93AF93BF93EF93FF93E091E7
:100A90001A01F0911B01309709F00995FF91EF9130
:100AA000BF91AF919F918F917F916F915F914F9186
:100AB0003F912F910F900FBE0F901F9018951F928E
:100AC0000F920FB60F9211242F933F934F935F9382
:100AD0006F937F938F939F93AF93BF93EF93FF9306
:100AE000E0911801F0911901309709F00995FF91F3
:100AF000EF91BF91AF919F918F917F916F915F9196
:100B00004F913F912F910F900FBE0F901F9018950E
:100B10001F920F920FB60F9211242F933F934F9372
:100B20005F936F937F938F939F93AF93BF93EF9355
:100B3000FF93E0911601F0911701309709F00995A4
:100B4000FF91EF91BF91AF919F918F917F916F91A5
:100B50005F914F913F912F910F900FBE0F901F907B
:100B600018951F920F920FB60F9211242F933F9357
:100B70004F935F936F937F938F939F93AF93BF93A5
:100B8000EF93FF93E0911401F0911501309709F074
:100B90000995FF91EF91BF91AF919F918F917F91B7
:100BA0006F915F914F913F912F910F900FBE0F90DA
:100BB0001F9018951F920F920FB60F9211242F932A
:100BC0003F934F935F936F937F938F939F93AF93D5
:100BD000BF93EF93FF93E0911201F09113013097CF
:100BE00009F00995FF91EF91BF91AF919F918F917E
:100BF0007F916F915F914F913F912F910F900FBE19
:100C00000F901F9018951F920F920FB60F921124FC
:100C10002F933F934F935F936F937F938F939F9304
:100C2000AF93BF93EF93FF93E0911001F091110107
:100C3000309709F00995FF91EF91BF91AF919F9186
:100C40008F917F916F915F914F913F912F910F9075
:100C50000FBE0F901F901895909389008093880085
:100C60000895CF93DF93EC01613089F4EC81FD812D
:100C7000288139818E819F816A817B81621B730B00
:100C80008E1B9F0B0E94A3068885998515C0623034
:100C900019F020E030E01BC0E881F9812C813D8112
:100CA0008A819B816E817F81621B730B8E1B9F0BE0
:100CB0000E94A3068A859B85821B930B689F9001E7
:100CC000699F300D789F300D11242E0F3F1FC901F1
:100CD000DF91CF91089508950F931F93DF93CF93E2
:100CE000CDB7DEB72C970FB6F894DEBF0FBECDBFE1
:100CF0000E9433020E943F02DE011196E0E0F1E023
:100D00008CE001900D928150E1F7CE01019662E0F6
:100D10000E94310608EC10E088EE93E00E942C0659
:100D200080E197E2F8013197F1F70197D9F788E868
:100D300093E10E942C0680E197E2F8013197F1F7E8
:100D40000197D9F7E9CF97FB092E07260AD077FD3F
:100D500004D00CD006D000201AF4709561957F4F16
:100D60000895F6F7909581959F4F0895AA1BBB1B98
:100D700051E107C0AA1FBB1FA617B70710F0A61B9B
:100D8000B70B881F991F5A95A9F780959095BC01BC
:080D9000CD010895F894FFCF96
:0C0D9800E80388130000B4000000B40061
:00000001FF
