:100000000C9434000C9451000C9451000C94510049
:100010000C9451000C9451000C9451000C9451001C
:100020000C9451000C9451000C9451000C9451000C
:100030000C9451000C9451000C9451000C945100FC
:100040000C9451000C9451000C9451000C945100EC
:100050000C9451000C9451000C9451000C945100DC
:100060000C9451000C94510011241FBECFEFD8E026
:10007000DEBFCDBF12E0A0E0B1E0ECECF4E202C0E4
:1000800005900D92A832B107D9F712E0A8E2B2E0CC
:1000900001C01D92A133B107E1F70E9494110C94A5
:1000A00064120C940000EF92FF920F931F937B0158
:1000B0008C0120E030E040E05FE40E94530388239D
:1000C0008CF0C801B70120E030E040E05FE40E941E
:1000D000CB010E94B3039B01AC0120503040404053
:1000E000504806C0C801B7010E94B3039B01AC0190
:1000F000B901CA011F910F91FF90EF900895A0E000
:10010000B0E0E5E8F0E00C942D12DC012B01FA01DF
:100110009C91923008F439C1EB018881823008F457
:1001200033C1943069F4843009F02FC111969C9149
:1001300011978981981709F428C1A0E0B1E025C181
:10014000843009F421C18230A9F4923009F01DC134
:100150009A01AD0188E0EA010990AE01E901099236
:100160009E018150C1F7E201898111969C918923FA
:10017000818308C1923009F407C112962D903C90FA
:100180001397EB018A819B811496AD90BD90CD9021
:10019000DC901797EC80FD800E811F819101281B58
:1001A000390BB90137FF04C066277727621B730B31
:1001B000603271050CF061C0121613066CF5370140
:1001C0004801062E04C096948794779467940A9405
:1001D000D2F721E030E040E050E004C0220F331FAE
:1001E000441F551F6A95D2F721503040404050407F
:1001F0002E213F2140235123211531054105510571
:1002000021F021E030E040E050E079018A01E62869
:10021000F728082919293CC0232BD1F1260E371EB7
:1002200035014601062E04C096948794779467940E
:100230000A94D2F721E030E040E050E004C0220F01
:10024000331F441F551F6A95D2F72150304040405C
:1002500050402A213B214C215D21211531054105CA
:10026000510521F021E030E040E050E059016A0101
:10027000A628B728C828D9280BC0821593052CF0CA
:100280001C01AA24BB24650103C0EE24FF248701BE
:1002900011969C91D20111968C91981709F445C042
:1002A000992339F0A80197012A193B094C095D09E6
:1002B00006C0A60195012E193F09400B510B57FDB1
:1002C00008C0118233822282248335834683578378
:1002D0001DC081E081833382228288279927DC0137
:1002E000821B930BA40BB50B84839583A683B783E2
:1002F0000DC0220F331F441F551F248335834683AF
:1003000057838281938101979383828324813581EE
:1003100046815781DA01C9010197A109B1098F5FAF
:100320009F4FAF4FBF4328F30BC09183338222828C
:10033000EA0CFB1C0C1D1D1DE482F582068317834D
:1003400083E08083248135814681578157FF1AC01D
:10035000C901AA2797FDA095BA2F81709070A0704F
:10036000B0705695479537952795822B932BA42BE4
:10037000B52B84839583A683B7838281938101966D
:1003800093838283DF0101C0D201CD01CDB7DEB7F7
:10039000E2E10C944912A0E2B0E0E1EDF1E00C944E
:1003A000391269837A838B839C832D833E834F83A9
:1003B0005887E9E0EE2EF12CEC0EFD1ECE010196E1
:1003C000B7010E94A4058E010F5E1F4FCE01059656
:1003D000B8010E94A4058A8991E089278A8BC70108
:1003E000B801AE01475E5F4F0E947F000E94CF04BC
:1003F000A096E6E00C945512A0E2B0E0E2E0F2E054
:100400000C94391269837A838B839C832D833E837A
:100410004F835887F9E0EF2EF12CEC0EFD1ECE0134
:100420000196B7010E94A4058E010F5E1F4FCE01F9
:100430000596B8010E94A405C701B801AE01475E48
:100440005F4F0E947F000E94CF04A096E6E00C94CC
:100450005512A0E2B0E0EFE2F2E00C942D126983B5
:100460007A838B839C832D833E834F835887CE0171
:100470000196BE01675F7F4F0E94A405CE010596DD
:10048000BE016F5E7F4F0E94A4059985923088F06F
:1004900089898230C8F0943019F4823051F404C054
:1004A000843029F4923081F480E091E0C6C092302B
:1004B00049F420E09A858A89981321E02A87CE01A1
:1004C0000996BBC0823049F420E09A858A89981346
:1004D00021E02A8BCE014196B0C02D843E844F840A
:1004E00058886D887E888F88988CEE24FF24870139
:1004F000AA24BB24650140E050E060E070E0E0E049
:10050000F0E0C10181709070892BE9F0E60CF71CD6
:10051000081D191D9A01AB012A0D3B1D4C1D5D1DC7
:1005200080E090E0A0E0B0E0E614F70408051905CB
:1005300020F481E090E0A0E0B0E0BA01A901480F0A
:10054000591F6A1F7B1FAA0CBB1CCC1CDD1C97FE0D
:1005500008C081E090E0A0E0B0E0A82AB92ACA2A49
:10056000DB2A3196E032F10549F0660C771C881CD5
:10057000991C5694479437942794C3CFFA85EA89F7
:100580002B893C898B859C85280F391F2E5F3F4F17
:1005900017C0CA0181709070892B61F0169507957C
:1005A000F794E79480E090E0A0E0B0E8E82AF92A28
:1005B0000A2B1B2B76956795579547952F5F3F4FD5
:1005C00077FDE7CF0CC0440F551F661F771F17FD3F
:1005D0004160EE0CFF1C001F111F215030404030C5
:1005E00090E0590790E0690790E4790760F32B8F5A
:1005F0003C8FDB01CA018F779070A070B07080349F
:100600009105A105B10561F447FD0AC0E114F104AB
:100610000105110529F0405C5F4F6F4F7F4F407817
:100620001A8EFE1711F081E08A8F4D8F5E8F6F8FCB
:1006300078A383E0898FCE0149960E94CF04A096CB
:10064000E2E10C944912A8E1B0E0E9E2F3E00C9495
:10065000391269837A838B839C832D833E834F83F6
:10066000588789E0E82EF12CEC0EFD1ECE01019694
:10067000B7010E94A4058E010F5E1F4FCE010596A3
:10068000B8010E94A4058985823040F089898230B2
:1006900028F0C701B8010E941C0601C08FEF6896C0
:1006A000E6E00C945512A8E1B0E0E9E5F3E00C9423
:1006B000391269837A838B839C832D833E834F8396
:1006C000588789E0E82EF12CEC0EFD1ECE01019634
:1006D000B7010E94A4058E010F5E1F4FCE01059643
:1006E000B8010E94A4058985823040F08989823052
:1006F00028F0C701B8010E941C0601C08FEF689660
:10070000E6E00C945512A8E1B0E0E9E8F3E00C94BF
:10071000391269837A838B839C832D833E834F8335
:10072000588789E0E82EF12CEC0EFD1ECE010196D3
:10073000B7010E94A4058E010F5E1F4FCE010596E2
:10074000B8010E94A4058985823040F089898230F1
:1007500028F0C701B8010E941C0601C081E068961C
:10076000E6E00C945512ACE0B0E0E9EBF3E00C9459
:100770003D1269837A838B839C83CE010196BE01EF
:100780006B5F7F4F0E94A4058D81823061F18230C2
:1007900050F1843021F48E81882351F12EC02F81B5
:1007A000388537FD20C06E812F3131051CF066235E
:1007B000F9F023C08EE190E0821B930B29853A85E6
:1007C0004B855C8504C056954795379527958A9546
:1007D000D2F76623B1F050954095309521953F4F63
:1007E0004F4F5F4F0EC020E030E040E050E009C0C6
:1007F0002FEF3FEF4FEF5FE704C020E030E040E035
:1008000050E8B901CA012C96E2E00C945912A8E014
:10081000B0E0EDE0F4E00C9435127B018C01611541
:1008200071058105910519F482E0898360C083E038
:1008300089838EE1C82ED12CDC82CB82ED82FE82B0
:100840000F831887C801B7010E948004FC0131970B
:10085000F7FF3BC0222733272E1B3F0B57016801B0
:10086000022E04C0D694C794B794A7940A94D2F7E2
:1008700040E050E060E070E081E090E0A0E0B0E0B7
:1008800004C0880F991FAA1FBB1F2A95D2F7019792
:10089000A109B1098E219F21A023B1230097A105B1
:1008A000B10521F041E050E060E070E04A295B29A9
:1008B0006C297D294D835E836F8378878EE190E07C
:1008C0008E1B9F0B9C838B8312C0309781F00E2E62
:1008D00004C0EE0CFF1C001F111F0A94D2F7ED821A
:1008E000FE820F831887CE1ADF0ADC82CB821A823F
:1008F000CE0101960E94CF042896EAE00C94511292
:10090000EF92FF920F931F937B018C0180E0E8161A
:1009100080E0F80681E0080780E0180788F48FEF90
:10092000E816F1040105110531F028F088E090E0A7
:10093000A0E0B0E017C080E090E0A0E0B0E012C01E
:1009400080E0E81680E0F80680E0080781E01807FC
:1009500028F088E190E0A0E0B0E004C080E190E001
:10096000A0E0B0E020E230E040E050E0281B390B8E
:100970004A0B5B0B04C016950795F794E7948A958C
:10098000D2F7F701E85FFE4F8081281B310941094A
:100990005109C9011F910F91FF90EF900895DF92C7
:1009A000EF92FF920F931F93FC01E480F580068184
:1009B0001781D1808081823048F480E090E0A0E10E
:1009C000B0E0E82AF92A0A2B1B2BA5C0843009F4D1
:1009D0009FC0823021F4EE24FF24870105C0E1147A
:1009E000F1040105110519F4E0E0F0E096C0628120
:1009F00073819FEF623879070CF05BC022E83FEF0C
:100A0000261B370B2A3131052CF020E030E040E086
:100A100050E02AC0B801A701022E04C07695679560
:100A2000579547950A94D2F781E090E0A0E0B0E0B6
:100A300004C0880F991FAA1FBB1F2A95D2F70197E0
:100A4000A109B1098E219F21A023B1230097A105FF
:100A5000B10521F081E090E0A0E0B0E09A01AB01A7
:100A6000282B392B4A2B5B2BDA01C9018F77907029
:100A7000A070B07080349105A105B10539F427FF4D
:100A800009C0205C3F4F4F4F5F4F04C0215C3F4F78
:100A90004F4F5F4FE0E0F0E02030A0E03A07A0E0E9
:100AA0004A07A0E45A0710F0E1E0F0E079018A017A
:100AB00027C06038710564F5FB01E158FF4FD8018C
:100AC000C7018F779070A070B07080349105A10538
:100AD000B10539F4E7FE0DC080E490E0A0E0B0E09D
:100AE00004C08FE390E0A0E0B0E0E80EF91E0A1F1A
:100AF0001B1F17FF05C016950795F794E7943196CD
:100B000087E016950795F794E7948A95D1F705C085
:100B1000EE24FF248701EFEFF0E06E2F6795662744
:100B20006795902F9F77D794DD24D7948E2F869545
:100B3000492F462B582F5D29B701CA011F910F91EC
:100B4000FF90EF90DF900895FC01DB01408151811F
:100B50002281622F6F7770E0221F2227221F93814C
:100B6000892F880F822B282F30E0991F9927991FF2
:100B700011969C93119721153105A9F54115510541
:100B80006105710511F482E037C082E89FEF13968A
:100B90009C938E9312979A01AB0167E0220F331F4B
:100BA000441F551F6A95D1F783E08C930DC0220F27
:100BB000331F441F551F12968D919C9113970197D7
:100BC00013969C938E931297203080E0380780E034
:100BD000480780E4580758F314962D933D934D939E
:100BE0005C93179708952F3F310579F4411551050E
:100BF0006105710519F484E08C93089564FF03C0C6
:100C000081E08C9312C01C9210C02F573040139675
:100C10003C932E93129783E08C9387E0440F551FEB
:100C2000661F771F8A95D1F7706414964D935D9374
:100C30006D937C93179708951F93DC01FB019C91A2
:100C4000923008F447C08081823008F443C0943069
:100C500051F411961C91843099F58181682F70E0D0
:100C6000611B71093FC0843021F0923031F4823031
:100C7000B9F18181882389F12DC011961C911197BA
:100C80008230F1F081811817D9F412962D913C91A0
:100C90001397828193818217930794F0281739075D
:100CA000BCF014968D919D910D90BC91A02D248146
:100CB000358146815781281739074A075B0718F4A1
:100CC000112341F00AC082179307A407B50740F427
:100CD000112319F061E070E005C06FEF7FEF02C0F3
:100CE00060E070E0CB011F910895DF93CF93CDB703
:100CF000DEB728970FB6F894DEBF0FBECDBF8A834C
:100D00006B834C8319828B81883008F0B3C08C814F
:100D1000882309F056C08A81282F30E038872F8336
:100D20008F81988581309105F9F02F8138852230A7
:100D3000310579F18F819885009709F03FC0AAE2CB
:100D4000B0E0EAE2F0E08081482F8B81282F30E08C
:100D500081E090E0022E02C0880F991F0A94E2F70A
:100D6000809584238C9388C0A4E2B0E0E4E2F0E0B4
:100D70008081482F8B81282F30E081E090E0022E87
:100D800002C0880F991F0A94E2F7809584238C9300
:100D900073C0A7E2B0E0E7E2F0E08081482F8B81EA
:100DA000282F30E081E090E0022E02C0880F991FCA
:100DB0000A94E2F7809584238C935EC081E0898356
:100DC0005BC08C81813009F052C08A81282F30E0CD
:100DD0003E832D838D819E8181309105E9F02D81A7
:100DE0003E812230310561F18D819E810097E1F5D0
:100DF000AAE2B0E0EAE2F0E08081482F8B81282F60
:100E000030E081E090E0022E02C0880F991F0A9422
:100E1000E2F7842B8C9330C0A4E2B0E0E4E2F0E08F
:100E20008081482F8B81282F30E081E090E0022ED6
:100E300002C0880F991F0A94E2F7842B8C931CC080
:100E4000A7E2B0E0E7E2F0E08081482F8B81282F15
:100E500030E081E090E0022E02C0880F991F0A94D2
:100E6000E2F7842B8C9308C081E0898305C081E080
:100E7000898302C081E08983898128960FB6F8941E
:100E8000DEBF0FBECDBFCF91DF910895DF93CF932B
:100E900000D000D00F92CDB7DEB78A836B83198262
:100EA0008A81282F30E03D832C838C819D81813085
:100EB000910571F02C813D812230310571F08C81DA
:100EC0009D81009779F4EAE2F0E08B8180830CC089
:100ED000E4E2F0E08B81808307C0E7E2F0E08B8101
:100EE000808302C081E0898389810F900F900F90E9
:100EF0000F900F90CF91DF910895DF93CF93CDB7EF
:100F0000DEB728970FB6F894DEBF0FBECDBF8A8339
:100F10006B834C8319828B81883008F0B3C08C813D
:100F2000882309F056C08A81282F30E038872F8324
:100F30008F81988581309105F9F02F813885223095
:100F4000310579F18F819885009709F03FC0ABE2B8
:100F5000B0E0EBE2F0E08081482F8B81282F30E079
:100F600081E090E0022E02C0880F991F0A94E2F7F8
:100F7000809584238C9388C0A5E2B0E0E5E2F0E0A0
:100F80008081482F8B81282F30E081E090E0022E75
:100F900002C0880F991F0A94E2F7809584238C93EE
:100FA00073C0A8E2B0E0E8E2F0E08081482F8B81D6
:100FB000282F30E081E090E0022E02C0880F991FB8
:100FC0000A94E2F7809584238C935EC081E0898344
:100FD0005BC08C81813009F052C08A81282F30E0BB
:100FE0003E832D838D819E8181309105E9F02D8195
:100FF0003E812230310561F18D819E810097E1F5BE
:10100000ABE2B0E0EBE2F0E08081482F8B81282F4B
:1010100030E081E090E0022E02C0880F991F0A9410
:10102000E2F7842B8C9330C0A5E2B0E0E5E2F0E07B
:101030008081482F8B81282F30E081E090E0022EC4
:1010400002C0880F991F0A94E2F7842B8C931CC06E
:10105000A8E2B0E0E8E2F0E08081482F8B81282F01
:1010600030E081E090E0022E02C0880F991F0A94C0
:10107000E2F7842B8C9308C081E0898305C081E06E
:10108000898302C081E08983898128960FB6F8940C
:10109000DEBF0FBECDBFCF91DF910895DF93CF9319
:1010A00000D000D00F92CDB7DEB78A836B83198250
:1010B0008A81282F30E03D832C838C819D81813073
:1010C000910571F02C813D812230310571F08C81C8
:1010D0009D81009779F4EBE2F0E08B8180830CC076
:1010E000E5E2F0E08B81808307C0E8E2F0E08B81ED
:1010F000808302C081E0898389810F900F900F90D7
:101100000F900F90CF91DF910895DF93CF93CDB7DC
:10111000DEB727970FB6F894DEBF0FBECDBF8A8328
:101120006B835D834C8319828C819D81009709F4C8
:1011300058C08B81883008F054C08A81282F30E055
:101140003F832E834E815F8141305105F9F08E81BE
:101150009F818230910571F12E813F8121153105EA
:1011600009F03CC0E9E2F0E08081282F30E08B817B
:10117000882F90E0A90102C0559547958A95E2F71E
:10118000CA018170EC81FD8180832DC0E3E2F0E033
:101190008081282F30E08B81882F90E0A90102C048
:1011A000559547958A95E2F7CA018170EC81FD81DA
:1011B000808319C0E6E2F0E08081282F30E08B8147
:1011C000882F90E0A90102C0559547958A95E2F7CE
:1011D000CA018170EC81FD81808305C081E0898333
:1011E00002C081E08983898127960FB6F894DEBF1B
:1011F0000FBECDBFCF91DF910895DF93CF93CDB7D1
:10120000DEB762970FB6F894DEBF0FBECDBF6F8713
:10121000788B898B9A8B6F85788989899A890E94C6
:101220000704DC01CB018B879C87AD87BE876B856C
:101230007C858D859E8520E030E04AE753E40E945E
:101240002902DC01CB018F839887A987BA876F8138
:10125000788589859A8520E030E040E85FE30E9448
:10126000830388232CF481E090E09E838D833FC02C
:101270006F81788589859A8520E03FEF4FE757E4B5
:101280000E94230318164CF56B857C858D859E8501
:1012900020E030E040E251E40E942902DC01CB0171
:1012A000BC01CD010E945300DC01CB019E838D83E4
:1012B0000FC089E190E09C838B838B819C81019797
:1012C000F1F79C838B838D819E8101979E838D8313
:1012D0008D819E81009769F714C06F81788589851B
:1012E0009A850E945300DC01CB019E838D838D8102
:1012F0009E819A83898389819A810197F1F79A83E4
:10130000898362960FB6F894DEBF0FBECDBFCF9132
:10131000DF910895DF93CF93CDB7DEB7ECE4F0E033
:1013200081E58083CF91DF910895DF93CF93CDB78F
:10133000DEB780E066E041E00E94750680E067E08D
:1013400041E00E94750680E067E041E00E947D0771
:1013500081E00E94DC09CF91DF910895DF93CF9364
:101360000F92CDB7DEB789838981882331F480E07D
:1013700067E040E00E947D0705C080E067E041E053
:101380000E947D070F90CF91DF910895DF93CF9357
:101390000F92CDB7DEB78983EEE4F0E089818083D8
:1013A000EDE4F0E080818823DCF7EEE4F0E080817A
:1013B0000F90CF91DF910895DF93CF930F92CDB728
:1013C000DEB789838981813031F480E066E041E0D5
:1013D0000E947D0705C080E066E040E00E947D0736
:1013E0000F90CF91DF910895DF93CF930F92CDB7F8
:1013F000DEB7898389818130B1F42BE232E08DE15F
:10140000B90141E020E00E942D1080912B02816003
:1014100080932C022CE232E08DE1B90141E020E022
:101420000E94671015C02BE232E08DE1B90141E066
:1014300020E00E942D1080912B028E7F80932C0241
:101440002CE232E08DE1B90141E020E00E9467101A
:101450000F90CF91DF910895DF93CF9300D000D00C
:101460000F92CDB7DEB79A8389836B834C832BE2CF
:1014700032E087E0B90141E020E00E942D10809128
:101480002B02882F90E0807290700097B1F48091C9
:101490000802833091F48C818093090280912902A3
:1014A000813019F480912F028B8389819A816B811D
:1014B0000E94670A81E08D8301C01D828D810F909B
:1014C0000F900F900F900F90CF91DF910895DF93C1
:1014D000CF9300D00F92CDB7DEB79A8389836B8309
:1014E00080E00E94AE0980910902813021F480EBF6
:1014F00080932A0203C080EA80932A0280912A0204
:101500000E94C60911C0E981FA81808180932A0274
:1015100080912A020E94C60989819A8101969A8344
:1015200089838B8181508B838B81882361F781E054
:101530000E94AE090F900F900F90CF91DF91089508
:10154000DF93CF930F92CDB7DEB72BE232E087E087
:10155000B90141E020E00E942D1080912B02882FDC
:1015600090E080729070009759F02BE232E087E0B3
:10157000B90141E020E00E94671081E0898314C036
:1015800080912B02882F90E080719070009759F025
:101590002BE232E087E0B90141E020E00E946710D1
:1015A0008FEF898301C0198289810F90CF91DF91DC
:1015B0000895DF93CF9300D000D0CDB7DEB79A83E4
:1015C00089836B8380910802843009F066C02BE226
:1015D00032E087E0B90141E020E00E942D108091C7
:1015E0002B02882F90E080749070009709F452C00D
:1015F00080912902882319F480912F028B8380E047
:101600000E94AE0981E680932A0280912A020E94FC
:10161000C60912C08FEF80932A0280912A020E948D
:10162000C609E981FA81808389819A8101969A832A
:1016300089838B8181508B838B81882359F781E04B
:101640000E94AE092BE232E087E1B90141E020E0DF
:101650000E942D1080912B02882F90E08170907055
:101660008823A9F02BE232E087E0B90141E020E0D5
:101670000E942D1080912B02806480932C022CE21A
:1016800032E087E0B90141E020E00E94671081E08C
:101690008C8304C082E08C8301C01C828C810F90FB
:1016A0000F900F900F90CF91DF910895DF93CF931C
:1016B00000D000D0CDB7DEB789838981282F30E0F4
:1016C0003C832B838B819C810097D9F02B813C81BB
:1016D0002130310561F580910802833081F480E08A
:1016E0000E94AE0981EE80932A0280912A020E9414
:1016F000C60981E00E94AE0931E03A8319C01A821E
:1017000017C080910802843081F480E00E94AE0905
:1017100082EE80932A0280912A020E94C60981E00B
:101720000E94AE0981E08A8303C01A8201C01A8236
:101730008A810F900F900F900F90CF91DF910895B5
:10174000DF93CF93CDB7DEB781E08093280280E0AE
:101750000E94DC0988E080932C022CE232E080E0D9
:10176000B90141E020E00E9467108FE380932C02D2
:101770002CE232E081E0B90141E020E00E946710F4
:1017800010922C022CE232E082E0B90141E020E02C
:101790000E94671083E080932C022CE232E083E009
:1017A000B90141E020E00E94671082E080932C02A2
:1017B0002CE232E085E0B90141E020E00E946710B0
:1017C0008EE080932C022CE232E086E0B90141E009
:1017D00020E00E9467108EE080932C022CE232E021
:1017E00087E0B90141E020E00E94671083E00E9499
:1017F0008D0F81E00E94560B84E00E948D0F80E0E7
:101800000E94560B2BE232E087E0B90141E020E074
:101810000E942D1080912B02806780932C022CE275
:1018200032E087E0B90141E020E00E94671081E0EA
:1018300061E041E00E940C0F81E061E00E94550FE1
:1018400085E00E94130E88EE93E00E94360E80E041
:101850000E94850E80E20E94E20E81E00E94F40D5B
:101860000E94A00D81E00E94800D81E061E00E9455
:10187000CE0D84EF91E062E00E94C70C81E00E94EF
:101880000C0D80E061E00E942E0D81E00E94F409C1
:10189000CF91DF910895DF93CF9300D000D0CDB7E3
:1018A000DEB789836A830E948A090E94950966E9E6
:1018B00070E080E090E00E94FD088A81813021F094
:1018C00080912802882311F40E94A00B8981282F7F
:1018D00030E03C832B838B819C818130910509F121
:1018E0002B813C81223031052CF48B819C81009727
:1018F00061F03EC02B813C812230310521F18B818A
:101900009C818330910559F133C080E00E948D0F96
:1019100081E060E040E00E940C0F83E00E948D0FA8
:101920002FC080E00E948D0F80E061E041E00E94C6
:101930000C0F84E00E948D0F64E670E080E090E080
:101940000E94FD081DC080E00E948D0F81E061E0D3
:1019500041E00E940C0F81E00E948D0F11C080E0D9
:101960000E948D0F81E061E041E00E940C0F08C0F1
:1019700080E00E948D0F81E061E041E00E940C0F49
:101980000F900F900F900F90CF91DF910895DF93FC
:10199000CF9300D00F92CDB7DEB79A8389836B8344
:1019A00010922C020BC080912C028F5F80932C022E
:1019B00089819A818A5F90409A83898389819A81FB
:1019C0008B3F910520F080912C028F3060F3809145
:1019D0002C028295807F80932C028B81882351F08A
:1019E0008B81803138F480912C029B81892B8093EC
:1019F0002C0204C080912C0280932C022CE232E055
:101A000084E0B90141E020E00E9467100F900F9040
:101A10000F90CF91DF910895DF93CF930F92CDB7C1
:101A2000DEB789838981873068F48981282F30E087
:101A300081E090E002C0880F991F2A95E2F781505B
:101A400080932C022CE232E081E0B90141E020E0F9
:101A50000E9467100F90CF91DF910895DF93CF938D
:101A600000D0CDB7DEB789836A838A810E940C0DCE
:101A70002BE232E08DE1B90141E020E00E942D101F
:101A80008981813049F580912B02846080932C02FA
:101A90002CE232E08DE1B90141E020E00E946710C4
:101AA0008A81873068F48A81282F30E081E090E0D5
:101AB00002C0880F991F2A95E2F7815080932C026B
:101AC0002CE232E08CE1B90141E020E00E94671095
:101AD00081E0809329020FC080912B028B7F80933D
:101AE0002C022CE232E08DE1B90141E020E00E94BD
:101AF0006710109229020F900F90CF91DF910895F7
:101B0000DF93CF930F92CDB7DEB789838981282FDA
:101B100030E0C901880F991F880F991F820F931F0A
:101B20000597865F9D4F9C0190912E0280E1B9013F
:101B3000492F20E00E9467100F90CF91DF91089508
:101B4000DF93CF9300D0CDB7DEB78AE08A831982C6
:101B50001DC04AE052E08981282F30E0C901880F7A
:101B6000991F880F991F820F931F9A01280F391F01
:101B700090912E028A81B901492F20E00E946710BE
:101B80008A818F5F8A8389818F5F8983898186308B
:101B900000F30F900F90CF91DF910895DF93CF93D3
:101BA00000D00F92CDB7DEB78A836B8381E1898342
:101BB0000FC09E012E5F3F4F8981B90141E020E0B7
:101BC0000E94671089818F5F89838B8181508B830D
:101BD0008B81882371F78A8180932F020F900F9059
:101BE0000F90CF91DF910895DF93CF930F92CDB7F0
:101BF000DEB789838981282F30E081E090E002C040
:101C0000880F991F2A95E2F7815080932C022CE2CD
:101C100032E082E0B90141E020E00E9467100F90BD
:101C2000CF91DF910895DF93CF930F92CDB7DEB7B9
:101C300089838981863040F48981833028F08981C5
:101C4000825080932D0203C083E080932D022DE209
:101C500032E083E0B90141E020E00E946710898111
:101C600080932E020F90CF91DF910895DF93CF9351
:101C700000D000D0CDB7DEB79A8389832BE232E063
:101C800086E0B90141E020E00E942D1080912B02F6
:101C9000877D80932B0289819A819C838B838B81A2
:101CA0009C8123E0883E920791F08B819C8127E004
:101CB000803D920731F08B819C818A3F910561F0D4
:101CC00011C080912B02886080932C020FC08091FC
:101CD0002B0280932C020AC080912B028062809399
:101CE0002C0204C080912B0280932C022CE232E063
:101CF00086E0B90141E020E00E9467100F900F904C
:101D00000F900F90CF91DF910895DF93CF9300D084
:101D10000F92CDB7DEB789832BE232E086E0B901BE
:101D200041E020E00E942D1080912B02897F80935A
:101D30002B028981282F30E03B832A838A819B8173
:101D400086309105D9F02A813B81273031052CF46A
:101D50008A819B81009761F022C02A813B812C30CF
:101D6000310591F08A819B818231910599F017C0EC
:101D700080912B02866080932C0216C080912B02EA
:101D8000846080932C0210C080912B02826080932B
:101D90002C020AC080912B0280932C0205C08091F6
:101DA0002B02846080932C022CE232E086E0B901A1
:101DB00041E020E00E9467100F900F900F90CF91AC
:101DC000DF910895DF93CF9300D00F92CDB7DEB7A8
:101DD0008B838B818E3778F48B81882361F08B81A4
:101DE000898385E09E012F5F3F4FB90141E020E0EC
:101DF0000E9467100BC081E08A839E012E5F3F4FD7
:101E000085E0B90141E020E00E9467100F900F903B
:101E10000F90CF91DF910895DF93CF9300D00F9271
:101E2000CDB7DEB789836A834B832BE232E080E053
:101E3000B90141E020E00E942D108981882331F012
:101E400080912B02806480932C0205C080912C022B
:101E50008F7B80932C028A81882331F080912C0221
:101E6000806280932C0205C080912C028F7D80932C
:101E70002C028B81882331F080912C028061809329
:101E80002C0205C080912C028F7E80932C022CE2C4
:101E900032E080E0B90141E020E00E9467100F903D
:101EA0000F900F90CF91DF910895DF93CF9300D0E3
:101EB000CDB7DEB789836A832BE232E080E0B901D7
:101EC00041E020E00E942D108981882331F080912B
:101ED0002B02886080932C0205C080912C02877FA2
:101EE00080932C028A81823031F480912C028460AC
:101EF00080932C0205C080912C028B7F80932C0252
:101F00002CE232E080E0B90141E020E00E9467105D
:101F10000F900F90CF91DF910895DF93CF9300D072
:101F20000F92CDB7DEB789832BE232E080E0B901B2
:101F300041E020E00E942D108981282F30E03B8372
:101F40002A838A819B8182309105C9F12A813B8154
:101F50002330310554F48A819B81009791F02A81C6
:101F60003B8121303105E1F059C08A819B8183306A
:101F70009105A9F12A813B812430310509F43FC044
:101F80004DC080E00E94DC0980912B028D7F809300
:101F90002C0262E070E080E090E00E94FD084CC0FE
:101FA00080E00E94DC0980912B02826080932C02E9
:101FB00062E070E080E090E00E94FD083DC081E0BA
:101FC0000E94DC0980912B028C7F826080932C021E
:101FD00062E070E080E090E00E94FD082DC081E0AA
:101FE0000E94DC0980912B028C7F826080932C02FE
:101FF00062E070E080E090E00E94FD081DC081E09A
:102000000E94DC0980912B02836080932C0262E0A5
:1020100070E080E090E00E94FD080EC080E00E9429
:10202000DC0980912B028D7F80932C0262E070E0AE
:1020300080E090E00E94FD082CE232E080E0B901EF
:1020400041E020E00E9467108981809308020F9090
:102050000F900F90CF91DF910895DF93CF9300D031
:1020600000D00F92CDB7DEB789837B836A834C8320
:102070002D8380E00E94AE09898180932A0280919D
:102080002A020E94C6098FEF80932A020FC0809116
:102090002A020E94C609EA81FB8180838A819B8192
:1020A00001969B838A838C8181508C838C818823C9
:1020B00071F78D81882319F481E00E94AE090F9099
:1020C0000F900F900F900F90CF91DF910895DF93B5
:1020D000CF9300D000D00F92CDB7DEB789837B833A
:1020E0006A834C832D8380E00E94AE0989818062DF
:1020F00080932A0280912A020E94C60911C0EA81B7
:10210000FB81808180932A028A819B8101969B8337
:102110008A8380912A020E94C6098C8181508C8317
:102120008C81882361F78D81882319F481E00E94D6
:10213000AE090F900F900F900F900F90CF91DF91FD
:102140000895DF93CF93CDB7DEB7EAE2F0E08EEDEE
:102150008083E7E2F0E08FEF8083E4E2F0E08BE25F
:102160008083EBE2F0E088EA8083E8E2F0E010822E
:10217000E5E2F0E084E08083CF91DF910895DF9382
:10218000CF93CDB7DEB7ACE4B0E0ECE4F0E0808113
:1021900080618C93ACE4B0E0ECE4F0E0808181609D
:1021A0008C93ACE4B0E0ECE4F0E080818D7F8C9324
:1021B000ADE4B0E0EDE4F0E080818E7F8C93ACE4A0
:1021C000B0E0ECE4F0E0808180648C93CF91DF910B
:1021D0000895DF93CF93CDB7DEB7ACE4B0E0ECE485
:1021E000F0E080818F7E8C93ACE4B0E0ECE4F0E032
:1021F000808180648C93CF91DF910895DF93CF939A
:1022000000D000D0CDB7DEB78A837C836B83198280
:102210008B819C81009719F482E089830FC0EEE4E2
:10222000F0E08A818083EDE4F0E080818823DCF7B0
:10223000EEE4F0E08081EB81FC81808389810F9066
:102240000F900F900F90CF91DF910895DF93CF9370
:102250000F92CDB7DEB719828981877F8983898103
:102260008F7E898389818F7D898389818F7B898313
:1022700089818F778983898182608983898184605C
:102280008983A1ECB0E0E1ECF0E080818B7F8C935E
:10229000E2ECF0E089818083A0ECB0E0E0ECF0E0DB
:1022A00080818D7F8C93E4ECF0E087E690E0918371
:1022B0008083A1ECB0E0E1ECF0E0808180618C9360
:1022C000A1ECB0E0E1ECF0E0808188608C930F90AD
:1022D000CF91DF910895DF93CF930F92CDB7DEB703
:1022E0008983E0ECF0E08081829586958770882F65
:1022F00090E0817090700097A1F3E6ECF0E08981A6
:1023000080830F90CF91DF910895DF93CF93CDB766
:10231000DEB7E0ECF0E080818823DCF7E6ECF0E06B
:102320008081CF91DF910895DF93CF93CDB7DEB752
:102330002F970FB6F894DEBF0FBECDBF0E94A1103D
:102340000E94261180E061E00E944B0C83E08F87A1
:102350000E9485118F878F850E946B1180E090E02D
:10236000AAEFB3E48B879C87AD87BE876B857C859E
:102370008D859E8520E030E04AE753E40E942902E3
:10238000DC01CB018F839887A987BA876F81788515
:1023900089859A8520E030E040E85FE30E9483036E
:1023A00088232CF481E090E09E838D833FC06F8171
:1023B000788589859A8520E03FEF4FE757E40E94B2
:1023C000230318164CF56B857C858D859E8520E052
:1023D00030E040E251E40E942902DC01CB01BC0163
:1023E000CD010E945300DC01CB019E838D830FC081
:1023F00089E190E09C838B838B819C810197F1F72D
:102400009C838B838D819E8101979E838D838D819B
:102410009E81009769F714C06F81788589859A85B8
:102420000E945300DC01CB019E838D838D819E81B0
:102430009A83898389819A810197F1F79A838983A5
:10244000CE010F9661E041E00E942C0A8823C1F37F
:102450000E94A00A8823E1F37BCF2F923F924F92F4
:102460005F926F927F928F929F92AF92BF92CF9224
:10247000DF92EF92FF920F931F93CF93DF93CDB72D
:10248000DEB7CA1BDB0B0FB6F894DEBF0FBECDBFA5
:1024900009942A88398848885F846E847D848C8476
:1024A0009B84AA84B984C884DF80EE80FD800C817F
:1024B0001B81AA81B981CE0FD11D0FB6F894DEBF62
:0C24C0000FBECDBFED010895F894FFCFD2
:1024CC0000000000000000000001020203030303EF
:1024DC0004040404040404040505050505050505A8
:1024EC000505050505050505060606060606060688
:1024FC000606060606060606060606060606060670
:10250C000606060606060606070707070707070757
:10251C00070707070707070707070707070707073F
:10252C00070707070707070707070707070707072F
:10253C00070707070707070707070707070707071F
:10254C000707070707070707080808080808080807
:10255C0008080808080808080808080808080808EF
:10256C0008080808080808080808080808080808DF
:10257C0008080808080808080808080808080808CF
:10258C0008080808080808080808080808080808BF
:10259C0008080808080808080808080808080808AF
:1025AC00080808080808080808080808080808089F
:1025BC00080808080808080808080808080808088F
:1025CC000808080808080808050120C3C2C1A02093
:1025DC00C3C2C1A120C3C2C1A220C3C2C1A320C314
:0825EC00C2C1A420C3C2C1A5B5
:00000001FF
